{
    "contractName": "SimpleStorage",
    "abi": [
        {
            "inputs": [],
            "name": "getFavoriteNumber",
            "outputs": [
                {
                    "internalType": "uint256",
                    "name": "",
                    "type": "uint256"
                }
            ],
            "stateMutability": "view",
            "type": "function"
        },
        {
            "inputs": [
                {
                    "internalType": "uint256",
                    "name": "",
                    "type": "uint256"
                }
            ],
            "name": "people",
            "outputs": [
                {
                    "internalType": "uint256",
                    "name": "farvoriteNumber",
                    "type": "uint256"
                },
                {
                    "internalType": "string",
                    "name": "name",
                    "type": "string"
                }
            ],
            "stateMutability": "view",
            "type": "function"
        },
        {
            "inputs": [
                {
                    "internalType": "uint256",
                    "name": "_favoriteNumber",
                    "type": "uint256"
                }
            ],
            "name": "setFavoriteNumber",
            "outputs": [],
            "stateMutability": "nonpayable",
            "type": "function"
        }
    ],
    "bytecode": "608060405234801561001057600080fd5b50610234806100206000396000f3fe608060405234801561001057600080fd5b50600436106100415760003560e01c80638ec04232146100465780639e7a13ad1461005b578063a621d15e14610085575b600080fd5b61005961005436600461014e565b600055565b005b61006e61006936600461014e565b610096565b60405161007c929190610167565b60405180910390f35b60005460405190815260200161007c565b600181815481106100a657600080fd5b600091825260209091206002909102018054600182018054919350906100cb906101c4565b80601f01602080910402602001604051908101604052809291908181526020018280546100f7906101c4565b80156101445780601f1061011957610100808354040283529160200191610144565b820191906000526020600020905b81548152906001019060200180831161012757829003601f168201915b5050505050905082565b60006020828403121561016057600080fd5b5035919050565b82815260006020604081840152835180604085015260005b8181101561019b5785810183015185820160600152820161017f565b818111156101ad576000606083870101525b50601f01601f191692909201606001949350505050565b600181811c908216806101d857607f821691505b6020821081036101f857634e487b7160e01b600052602260045260246000fd5b5091905056fea2646970667358221220acb9165cdea55032b7c4f6331d47af735d2423b94c432fc1c33f292befb9efa264736f6c634300080f0033",
    "sourcePath": "/Users/admin/Desktop/blockchain/Solidity/FirstSimple/SimpleStorage.sol",
    "compiler": {
        "name": "solc",
        "version": "0.8.15+commit.e14f2714"
    },
    "functionHashes": {
        "getFavoriteNumber()": "a621d15e",
        "people(uint256)": "9e7a13ad",
        "setFavoriteNumber(uint256)": "8ec04232"
    },
    "gasEstimates": {
        "creation": {
            "codeDepositCost": "112800",
            "executionCost": "159",
            "totalCost": "112959"
        },
        "external": {
            "getFavoriteNumber()": "2302",
            "people(uint256)": "infinite",
            "setFavoriteNumber(uint256)": "22290"
        }
    }
}