{
	"contacts/StoreageFactory.sol": {
		"StorageFactory": {
			"abi": [
				{
					"inputs": [],
					"name": "createSimpleStorageContract",
					"outputs": [],
					"stateMutability": "nonpayable",
					"type": "function"
				},
				{
					"inputs": [
						{
							"internalType": "uint256",
							"name": "_simpleStorageIndex",
							"type": "uint256"
						},
						{
							"internalType": "uint256",
							"name": "_simpleStorageNumber",
							"type": "uint256"
						}
					],
					"name": "fsStore",
					"outputs": [],
					"stateMutability": "nonpayable",
					"type": "function"
				},
				{
					"inputs": [
						{
							"internalType": "uint256",
							"name": "_simpleStorageIndex",
							"type": "uint256"
						}
					],
					"name": "sfGet",
					"outputs": [
						{
							"internalType": "uint256",
							"name": "",
							"type": "uint256"
						}
					],
					"stateMutability": "view",
					"type": "function"
				},
				{
					"inputs": [
						{
							"internalType": "uint256",
							"name": "",
							"type": "uint256"
						}
					],
					"name": "simpleStorageArray",
					"outputs": [
						{
							"internalType": "contract SimpleStorage",
							"name": "",
							"type": "address"
						}
					],
					"stateMutability": "view",
					"type": "function"
				}
			],
			"devdoc": {
				"kind": "dev",
				"methods": {},
				"version": 1
			},
			"evm": {
				"assembly": "    /* \"contacts/StoreageFactory.sol\":107:751  contract StorageFactory {... */\n  mstore(0x40, 0x80)\n  callvalue\n  dup1\n  iszero\n  tag_1\n  jumpi\n  0x00\n  dup1\n  revert\ntag_1:\n  pop\n  dataSize(sub_0)\n  dup1\n  dataOffset(sub_0)\n  0x00\n  codecopy\n  0x00\n  return\nstop\n\nsub_0: assembly {\n        /* \"contacts/StoreageFactory.sol\":107:751  contract StorageFactory {... */\n      mstore(0x40, 0x80)\n      callvalue\n      dup1\n      iszero\n      tag_1\n      jumpi\n      0x00\n      dup1\n      revert\n    tag_1:\n      pop\n      jumpi(tag_2, lt(calldatasize, 0x04))\n      shr(0xe0, calldataload(0x00))\n      dup1\n      0x1dda6541\n      eq\n      tag_3\n      jumpi\n      dup1\n      0x64591bf1\n      eq\n      tag_4\n      jumpi\n      dup1\n      0x8dea47bc\n      eq\n      tag_5\n      jumpi\n      dup1\n      0xc5f19c20\n      eq\n      tag_6\n      jumpi\n    tag_2:\n      0x00\n      dup1\n      revert\n        /* \"contacts/StoreageFactory.sol\":185:345  function createSimpleStorageContract() public {... */\n    tag_3:\n      tag_7\n      tag_8\n      jump\t// in\n    tag_7:\n      stop\n        /* \"contacts/StoreageFactory.sol\":137:178  SimpleStorage[] public simpleStorageArray */\n    tag_4:\n      tag_9\n      0x04\n      dup1\n      calldatasize\n      sub\n      dup2\n      add\n      swap1\n      tag_10\n      swap2\n      swap1\n      tag_11\n      jump\t// in\n    tag_10:\n      tag_12\n      jump\t// in\n    tag_9:\n      mload(0x40)\n      tag_13\n      swap2\n      swap1\n      tag_14\n      jump\t// in\n    tag_13:\n      mload(0x40)\n      dup1\n      swap2\n      sub\n      swap1\n      return\n        /* \"contacts/StoreageFactory.sol\":351:595  function fsStore(uint256 _simpleStorageIndex, uint256 _simpleStorageNumber)... */\n    tag_5:\n      tag_15\n      0x04\n      dup1\n      calldatasize\n      sub\n      dup2\n      add\n      swap1\n      tag_16\n      swap2\n      swap1\n      tag_17\n      jump\t// in\n    tag_16:\n      tag_18\n      jump\t// in\n    tag_15:\n      stop\n        /* \"contacts/StoreageFactory.sol\":601:749  function sfGet(uint256 _simpleStorageIndex) public view returns (uint256) {... */\n    tag_6:\n      tag_19\n      0x04\n      dup1\n      calldatasize\n      sub\n      dup2\n      add\n      swap1\n      tag_20\n      swap2\n      swap1\n      tag_11\n      jump\t// in\n    tag_20:\n      tag_21\n      jump\t// in\n    tag_19:\n      mload(0x40)\n      tag_22\n      swap2\n      swap1\n      tag_23\n      jump\t// in\n    tag_22:\n      mload(0x40)\n      dup1\n      swap2\n      sub\n      swap1\n      return\n        /* \"contacts/StoreageFactory.sol\":185:345  function createSimpleStorageContract() public {... */\n    tag_8:\n        /* \"contacts/StoreageFactory.sol\":241:268  SimpleStorage simpleStorage */\n      0x00\n        /* \"contacts/StoreageFactory.sol\":271:290  new SimpleStorage() */\n      mload(0x40)\n      tag_25\n      swap1\n      tag_26\n      jump\t// in\n    tag_25:\n      mload(0x40)\n      dup1\n      swap2\n      sub\n      swap1\n      0x00\n      create\n      dup1\n      iszero\n      dup1\n      iszero\n      tag_27\n      jumpi\n      returndatasize\n      0x00\n      dup1\n      returndatacopy\n      revert(0x00, returndatasize)\n    tag_27:\n      pop\n        /* \"contacts/StoreageFactory.sol\":241:290  SimpleStorage simpleStorage = new SimpleStorage() */\n      swap1\n      pop\n        /* \"contacts/StoreageFactory.sol\":300:318  simpleStorageArray */\n      0x00\n        /* \"contacts/StoreageFactory.sol\":324:337  simpleStorage */\n      dup2\n        /* \"contacts/StoreageFactory.sol\":300:338  simpleStorageArray.push(simpleStorage) */\n      swap1\n      dup1\n      0x01\n      dup2\n      sload\n      add\n      dup1\n      dup3\n      sstore\n      dup1\n      swap2\n      pop\n      pop\n      0x01\n      swap1\n      sub\n      swap1\n      0x00\n      mstore\n      keccak256(0x00, 0x20)\n      add\n      0x00\n      swap1\n      swap2\n      swap1\n      swap2\n      swap1\n      swap2\n      0x0100\n      exp\n      dup2\n      sload\n      dup2\n      0xffffffffffffffffffffffffffffffffffffffff\n      mul\n      not\n      and\n      swap1\n      dup4\n      0xffffffffffffffffffffffffffffffffffffffff\n      and\n      mul\n      or\n      swap1\n      sstore\n      pop\n        /* \"contacts/StoreageFactory.sol\":231:345  {... */\n      pop\n        /* \"contacts/StoreageFactory.sol\":185:345  function createSimpleStorageContract() public {... */\n      jump\t// out\n        /* \"contacts/StoreageFactory.sol\":137:178  SimpleStorage[] public simpleStorageArray */\n    tag_12:\n      0x00\n      dup2\n      dup2\n      sload\n      dup2\n      lt\n      tag_29\n      jumpi\n      0x00\n      dup1\n      revert\n    tag_29:\n      swap1\n      0x00\n      mstore\n      keccak256(0x00, 0x20)\n      add\n      0x00\n      swap2\n      pop\n      sload\n      swap1\n      0x0100\n      exp\n      swap1\n      div\n      0xffffffffffffffffffffffffffffffffffffffff\n      and\n      dup2\n      jump\t// out\n        /* \"contacts/StoreageFactory.sol\":351:595  function fsStore(uint256 _simpleStorageIndex, uint256 _simpleStorageNumber)... */\n    tag_18:\n        /* \"contacts/StoreageFactory.sol\":521:539  simpleStorageArray */\n      0x00\n        /* \"contacts/StoreageFactory.sol\":540:559  _simpleStorageIndex */\n      dup3\n        /* \"contacts/StoreageFactory.sol\":521:560  simpleStorageArray[_simpleStorageIndex] */\n      dup2\n      sload\n      dup2\n      lt\n      tag_32\n      jumpi\n      tag_33\n      tag_34\n      jump\t// in\n    tag_33:\n    tag_32:\n      swap1\n      0x00\n      mstore\n      keccak256(0x00, 0x20)\n      add\n      0x00\n      swap1\n      sload\n      swap1\n      0x0100\n      exp\n      swap1\n      div\n      0xffffffffffffffffffffffffffffffffffffffff\n      and\n        /* \"contacts/StoreageFactory.sol\":521:566  simpleStorageArray[_simpleStorageIndex].store */\n      0xffffffffffffffffffffffffffffffffffffffff\n      and\n      0x6057361d\n        /* \"contacts/StoreageFactory.sol\":567:587  _simpleStorageNumber */\n      dup3\n        /* \"contacts/StoreageFactory.sol\":521:588  simpleStorageArray[_simpleStorageIndex].store(_simpleStorageNumber) */\n      mload(0x40)\n      dup3\n      0xffffffff\n      and\n      0xe0\n      shl\n      dup2\n      mstore\n      0x04\n      add\n      tag_36\n      swap2\n      swap1\n      tag_23\n      jump\t// in\n    tag_36:\n      0x00\n      mload(0x40)\n      dup1\n      dup4\n      sub\n      dup2\n      0x00\n      dup8\n      dup1\n      extcodesize\n      iszero\n      dup1\n      iszero\n      tag_37\n      jumpi\n      0x00\n      dup1\n      revert\n    tag_37:\n      pop\n      gas\n      call\n      iszero\n      dup1\n      iszero\n      tag_39\n      jumpi\n      returndatasize\n      0x00\n      dup1\n      returndatacopy\n      revert(0x00, returndatasize)\n    tag_39:\n      pop\n      pop\n      pop\n      pop\n        /* \"contacts/StoreageFactory.sol\":351:595  function fsStore(uint256 _simpleStorageIndex, uint256 _simpleStorageNumber)... */\n      pop\n      pop\n      jump\t// out\n        /* \"contacts/StoreageFactory.sol\":601:749  function sfGet(uint256 _simpleStorageIndex) public view returns (uint256) {... */\n    tag_21:\n        /* \"contacts/StoreageFactory.sol\":666:673  uint256 */\n      0x00\n        /* \"contacts/StoreageFactory.sol\":692:710  simpleStorageArray */\n      dup1\n        /* \"contacts/StoreageFactory.sol\":711:730  _simpleStorageIndex */\n      dup3\n        /* \"contacts/StoreageFactory.sol\":692:731  simpleStorageArray[_simpleStorageIndex] */\n      dup2\n      sload\n      dup2\n      lt\n      tag_41\n      jumpi\n      tag_42\n      tag_34\n      jump\t// in\n    tag_42:\n    tag_41:\n      swap1\n      0x00\n      mstore\n      keccak256(0x00, 0x20)\n      add\n      0x00\n      swap1\n      sload\n      swap1\n      0x0100\n      exp\n      swap1\n      div\n      0xffffffffffffffffffffffffffffffffffffffff\n      and\n        /* \"contacts/StoreageFactory.sol\":692:740  simpleStorageArray[_simpleStorageIndex].retrieve */\n      0xffffffffffffffffffffffffffffffffffffffff\n      and\n      0x2e64cec1\n        /* \"contacts/StoreageFactory.sol\":692:742  simpleStorageArray[_simpleStorageIndex].retrieve() */\n      mload(0x40)\n      dup2\n      0xffffffff\n      and\n      0xe0\n      shl\n      dup2\n      mstore\n      0x04\n      add\n      0x20\n      mload(0x40)\n      dup1\n      dup4\n      sub\n      dup2\n      dup7\n      gas\n      staticcall\n      iszero\n      dup1\n      iszero\n      tag_45\n      jumpi\n      returndatasize\n      0x00\n      dup1\n      returndatacopy\n      revert(0x00, returndatasize)\n    tag_45:\n      pop\n      pop\n      pop\n      pop\n      mload(0x40)\n      returndatasize\n      not(0x1f)\n      0x1f\n      dup3\n      add\n      and\n      dup3\n      add\n      dup1\n      0x40\n      mstore\n      pop\n      dup2\n      add\n      swap1\n      tag_46\n      swap2\n      swap1\n      tag_47\n      jump\t// in\n    tag_46:\n        /* \"contacts/StoreageFactory.sol\":685:742  return simpleStorageArray[_simpleStorageIndex].retrieve() */\n      swap1\n      pop\n        /* \"contacts/StoreageFactory.sol\":601:749  function sfGet(uint256 _simpleStorageIndex) public view returns (uint256) {... */\n      swap2\n      swap1\n      pop\n      jump\t// out\n    tag_26:\n      dataSize(sub_0)\n      dup1\n      dataOffset(sub_0)\n      dup4\n      codecopy\n      add\n      swap1\n      jump\t// out\n        /* \"#utility.yul\":88:205   */\n    tag_49:\n        /* \"#utility.yul\":197:198   */\n      0x00\n        /* \"#utility.yul\":194:195   */\n      dup1\n        /* \"#utility.yul\":187:199   */\n      revert\n        /* \"#utility.yul\":334:411   */\n    tag_51:\n        /* \"#utility.yul\":371:378   */\n      0x00\n        /* \"#utility.yul\":400:405   */\n      dup2\n        /* \"#utility.yul\":389:405   */\n      swap1\n      pop\n        /* \"#utility.yul\":334:411   */\n      swap2\n      swap1\n      pop\n      jump\t// out\n        /* \"#utility.yul\":417:539   */\n    tag_52:\n        /* \"#utility.yul\":490:514   */\n      tag_68\n        /* \"#utility.yul\":508:513   */\n      dup2\n        /* \"#utility.yul\":490:514   */\n      tag_51\n      jump\t// in\n    tag_68:\n        /* \"#utility.yul\":483:488   */\n      dup2\n        /* \"#utility.yul\":480:515   */\n      eq\n        /* \"#utility.yul\":470:533   */\n      tag_69\n      jumpi\n        /* \"#utility.yul\":529:530   */\n      0x00\n        /* \"#utility.yul\":526:527   */\n      dup1\n        /* \"#utility.yul\":519:531   */\n      revert\n        /* \"#utility.yul\":470:533   */\n    tag_69:\n        /* \"#utility.yul\":417:539   */\n      pop\n      jump\t// out\n        /* \"#utility.yul\":545:684   */\n    tag_53:\n        /* \"#utility.yul\":591:596   */\n      0x00\n        /* \"#utility.yul\":629:635   */\n      dup2\n        /* \"#utility.yul\":616:636   */\n      calldataload\n        /* \"#utility.yul\":607:636   */\n      swap1\n      pop\n        /* \"#utility.yul\":645:678   */\n      tag_71\n        /* \"#utility.yul\":672:677   */\n      dup2\n        /* \"#utility.yul\":645:678   */\n      tag_52\n      jump\t// in\n    tag_71:\n        /* \"#utility.yul\":545:684   */\n      swap3\n      swap2\n      pop\n      pop\n      jump\t// out\n        /* \"#utility.yul\":690:1019   */\n    tag_11:\n        /* \"#utility.yul\":749:755   */\n      0x00\n        /* \"#utility.yul\":798:800   */\n      0x20\n        /* \"#utility.yul\":786:795   */\n      dup3\n        /* \"#utility.yul\":777:784   */\n      dup5\n        /* \"#utility.yul\":773:796   */\n      sub\n        /* \"#utility.yul\":769:801   */\n      slt\n        /* \"#utility.yul\":766:885   */\n      iszero\n      tag_73\n      jumpi\n        /* \"#utility.yul\":804:883   */\n      tag_74\n      tag_49\n      jump\t// in\n    tag_74:\n        /* \"#utility.yul\":766:885   */\n    tag_73:\n        /* \"#utility.yul\":924:925   */\n      0x00\n        /* \"#utility.yul\":949:1002   */\n      tag_75\n        /* \"#utility.yul\":994:1001   */\n      dup5\n        /* \"#utility.yul\":985:991   */\n      dup3\n        /* \"#utility.yul\":974:983   */\n      dup6\n        /* \"#utility.yul\":970:992   */\n      add\n        /* \"#utility.yul\":949:1002   */\n      tag_53\n      jump\t// in\n    tag_75:\n        /* \"#utility.yul\":939:1002   */\n      swap2\n      pop\n        /* \"#utility.yul\":895:1012   */\n      pop\n        /* \"#utility.yul\":690:1019   */\n      swap3\n      swap2\n      pop\n      pop\n      jump\t// out\n        /* \"#utility.yul\":1025:1151   */\n    tag_54:\n        /* \"#utility.yul\":1062:1069   */\n      0x00\n        /* \"#utility.yul\":1102:1144   */\n      0xffffffffffffffffffffffffffffffffffffffff\n        /* \"#utility.yul\":1095:1100   */\n      dup3\n        /* \"#utility.yul\":1091:1145   */\n      and\n        /* \"#utility.yul\":1080:1145   */\n      swap1\n      pop\n        /* \"#utility.yul\":1025:1151   */\n      swap2\n      swap1\n      pop\n      jump\t// out\n        /* \"#utility.yul\":1157:1217   */\n    tag_55:\n        /* \"#utility.yul\":1185:1188   */\n      0x00\n        /* \"#utility.yul\":1206:1211   */\n      dup2\n        /* \"#utility.yul\":1199:1211   */\n      swap1\n      pop\n        /* \"#utility.yul\":1157:1217   */\n      swap2\n      swap1\n      pop\n      jump\t// out\n        /* \"#utility.yul\":1223:1365   */\n    tag_56:\n        /* \"#utility.yul\":1273:1282   */\n      0x00\n        /* \"#utility.yul\":1306:1359   */\n      tag_79\n        /* \"#utility.yul\":1324:1358   */\n      tag_80\n        /* \"#utility.yul\":1333:1357   */\n      tag_81\n        /* \"#utility.yul\":1351:1356   */\n      dup5\n        /* \"#utility.yul\":1333:1357   */\n      tag_54\n      jump\t// in\n    tag_81:\n        /* \"#utility.yul\":1324:1358   */\n      tag_55\n      jump\t// in\n    tag_80:\n        /* \"#utility.yul\":1306:1359   */\n      tag_54\n      jump\t// in\n    tag_79:\n        /* \"#utility.yul\":1293:1359   */\n      swap1\n      pop\n        /* \"#utility.yul\":1223:1365   */\n      swap2\n      swap1\n      pop\n      jump\t// out\n        /* \"#utility.yul\":1371:1497   */\n    tag_57:\n        /* \"#utility.yul\":1421:1430   */\n      0x00\n        /* \"#utility.yul\":1454:1491   */\n      tag_83\n        /* \"#utility.yul\":1485:1490   */\n      dup3\n        /* \"#utility.yul\":1454:1491   */\n      tag_56\n      jump\t// in\n    tag_83:\n        /* \"#utility.yul\":1441:1491   */\n      swap1\n      pop\n        /* \"#utility.yul\":1371:1497   */\n      swap2\n      swap1\n      pop\n      jump\t// out\n        /* \"#utility.yul\":1503:1649   */\n    tag_58:\n        /* \"#utility.yul\":1573:1582   */\n      0x00\n        /* \"#utility.yul\":1606:1643   */\n      tag_85\n        /* \"#utility.yul\":1637:1642   */\n      dup3\n        /* \"#utility.yul\":1606:1643   */\n      tag_57\n      jump\t// in\n    tag_85:\n        /* \"#utility.yul\":1593:1643   */\n      swap1\n      pop\n        /* \"#utility.yul\":1503:1649   */\n      swap2\n      swap1\n      pop\n      jump\t// out\n        /* \"#utility.yul\":1655:1826   */\n    tag_59:\n        /* \"#utility.yul\":1762:1819   */\n      tag_87\n        /* \"#utility.yul\":1813:1818   */\n      dup2\n        /* \"#utility.yul\":1762:1819   */\n      tag_58\n      jump\t// in\n    tag_87:\n        /* \"#utility.yul\":1757:1760   */\n      dup3\n        /* \"#utility.yul\":1750:1820   */\n      mstore\n        /* \"#utility.yul\":1655:1826   */\n      pop\n      pop\n      jump\t// out\n        /* \"#utility.yul\":1832:2094   */\n    tag_14:\n        /* \"#utility.yul\":1945:1949   */\n      0x00\n        /* \"#utility.yul\":1983:1985   */\n      0x20\n        /* \"#utility.yul\":1972:1981   */\n      dup3\n        /* \"#utility.yul\":1968:1986   */\n      add\n        /* \"#utility.yul\":1960:1986   */\n      swap1\n      pop\n        /* \"#utility.yul\":1996:2087   */\n      tag_89\n        /* \"#utility.yul\":2084:2085   */\n      0x00\n        /* \"#utility.yul\":2073:2082   */\n      dup4\n        /* \"#utility.yul\":2069:2086   */\n      add\n        /* \"#utility.yul\":2060:2066   */\n      dup5\n        /* \"#utility.yul\":1996:2087   */\n      tag_59\n      jump\t// in\n    tag_89:\n        /* \"#utility.yul\":1832:2094   */\n      swap3\n      swap2\n      pop\n      pop\n      jump\t// out\n        /* \"#utility.yul\":2100:2574   */\n    tag_17:\n        /* \"#utility.yul\":2168:2174   */\n      0x00\n        /* \"#utility.yul\":2176:2182   */\n      dup1\n        /* \"#utility.yul\":2225:2227   */\n      0x40\n        /* \"#utility.yul\":2213:2222   */\n      dup4\n        /* \"#utility.yul\":2204:2211   */\n      dup6\n        /* \"#utility.yul\":2200:2223   */\n      sub\n        /* \"#utility.yul\":2196:2228   */\n      slt\n        /* \"#utility.yul\":2193:2312   */\n      iszero\n      tag_91\n      jumpi\n        /* \"#utility.yul\":2231:2310   */\n      tag_92\n      tag_49\n      jump\t// in\n    tag_92:\n        /* \"#utility.yul\":2193:2312   */\n    tag_91:\n        /* \"#utility.yul\":2351:2352   */\n      0x00\n        /* \"#utility.yul\":2376:2429   */\n      tag_93\n        /* \"#utility.yul\":2421:2428   */\n      dup6\n        /* \"#utility.yul\":2412:2418   */\n      dup3\n        /* \"#utility.yul\":2401:2410   */\n      dup7\n        /* \"#utility.yul\":2397:2419   */\n      add\n        /* \"#utility.yul\":2376:2429   */\n      tag_53\n      jump\t// in\n    tag_93:\n        /* \"#utility.yul\":2366:2429   */\n      swap3\n      pop\n        /* \"#utility.yul\":2322:2439   */\n      pop\n        /* \"#utility.yul\":2478:2480   */\n      0x20\n        /* \"#utility.yul\":2504:2557   */\n      tag_94\n        /* \"#utility.yul\":2549:2556   */\n      dup6\n        /* \"#utility.yul\":2540:2546   */\n      dup3\n        /* \"#utility.yul\":2529:2538   */\n      dup7\n        /* \"#utility.yul\":2525:2547   */\n      add\n        /* \"#utility.yul\":2504:2557   */\n      tag_53\n      jump\t// in\n    tag_94:\n        /* \"#utility.yul\":2494:2557   */\n      swap2\n      pop\n        /* \"#utility.yul\":2449:2567   */\n      pop\n        /* \"#utility.yul\":2100:2574   */\n      swap3\n      pop\n      swap3\n      swap1\n      pop\n      jump\t// out\n        /* \"#utility.yul\":2580:2698   */\n    tag_60:\n        /* \"#utility.yul\":2667:2691   */\n      tag_96\n        /* \"#utility.yul\":2685:2690   */\n      dup2\n        /* \"#utility.yul\":2667:2691   */\n      tag_51\n      jump\t// in\n    tag_96:\n        /* \"#utility.yul\":2662:2665   */\n      dup3\n        /* \"#utility.yul\":2655:2692   */\n      mstore\n        /* \"#utility.yul\":2580:2698   */\n      pop\n      pop\n      jump\t// out\n        /* \"#utility.yul\":2704:2926   */\n    tag_23:\n        /* \"#utility.yul\":2797:2801   */\n      0x00\n        /* \"#utility.yul\":2835:2837   */\n      0x20\n        /* \"#utility.yul\":2824:2833   */\n      dup3\n        /* \"#utility.yul\":2820:2838   */\n      add\n        /* \"#utility.yul\":2812:2838   */\n      swap1\n      pop\n        /* \"#utility.yul\":2848:2919   */\n      tag_98\n        /* \"#utility.yul\":2916:2917   */\n      0x00\n        /* \"#utility.yul\":2905:2914   */\n      dup4\n        /* \"#utility.yul\":2901:2918   */\n      add\n        /* \"#utility.yul\":2892:2898   */\n      dup5\n        /* \"#utility.yul\":2848:2919   */\n      tag_60\n      jump\t// in\n    tag_98:\n        /* \"#utility.yul\":2704:2926   */\n      swap3\n      swap2\n      pop\n      pop\n      jump\t// out\n        /* \"#utility.yul\":2932:3112   */\n    tag_34:\n        /* \"#utility.yul\":2980:3057   */\n      0x4e487b7100000000000000000000000000000000000000000000000000000000\n        /* \"#utility.yul\":2977:2978   */\n      0x00\n        /* \"#utility.yul\":2970:3058   */\n      mstore\n        /* \"#utility.yul\":3077:3081   */\n      0x32\n        /* \"#utility.yul\":3074:3075   */\n      0x04\n        /* \"#utility.yul\":3067:3082   */\n      mstore\n        /* \"#utility.yul\":3101:3105   */\n      0x24\n        /* \"#utility.yul\":3098:3099   */\n      0x00\n        /* \"#utility.yul\":3091:3106   */\n      revert\n        /* \"#utility.yul\":3118:3261   */\n    tag_61:\n        /* \"#utility.yul\":3175:3180   */\n      0x00\n        /* \"#utility.yul\":3206:3212   */\n      dup2\n        /* \"#utility.yul\":3200:3213   */\n      mload\n        /* \"#utility.yul\":3191:3213   */\n      swap1\n      pop\n        /* \"#utility.yul\":3222:3255   */\n      tag_101\n        /* \"#utility.yul\":3249:3254   */\n      dup2\n        /* \"#utility.yul\":3222:3255   */\n      tag_52\n      jump\t// in\n    tag_101:\n        /* \"#utility.yul\":3118:3261   */\n      swap3\n      swap2\n      pop\n      pop\n      jump\t// out\n        /* \"#utility.yul\":3267:3618   */\n    tag_47:\n        /* \"#utility.yul\":3337:3343   */\n      0x00\n        /* \"#utility.yul\":3386:3388   */\n      0x20\n        /* \"#utility.yul\":3374:3383   */\n      dup3\n        /* \"#utility.yul\":3365:3372   */\n      dup5\n        /* \"#utility.yul\":3361:3384   */\n      sub\n        /* \"#utility.yul\":3357:3389   */\n      slt\n        /* \"#utility.yul\":3354:3473   */\n      iszero\n      tag_103\n      jumpi\n        /* \"#utility.yul\":3392:3471   */\n      tag_104\n      tag_49\n      jump\t// in\n    tag_104:\n        /* \"#utility.yul\":3354:3473   */\n    tag_103:\n        /* \"#utility.yul\":3512:3513   */\n      0x00\n        /* \"#utility.yul\":3537:3601   */\n      tag_105\n        /* \"#utility.yul\":3593:3600   */\n      dup5\n        /* \"#utility.yul\":3584:3590   */\n      dup3\n        /* \"#utility.yul\":3573:3582   */\n      dup6\n        /* \"#utility.yul\":3569:3591   */\n      add\n        /* \"#utility.yul\":3537:3601   */\n      tag_61\n      jump\t// in\n    tag_105:\n        /* \"#utility.yul\":3527:3601   */\n      swap2\n      pop\n        /* \"#utility.yul\":3483:3611   */\n      pop\n        /* \"#utility.yul\":3267:3618   */\n      swap3\n      swap2\n      pop\n      pop\n      jump\t// out\n    stop\n\n    sub_0: assembly {\n            /* \"contacts/SimpleStorage.sol\":77:1088  contract SimpleStorage {... */\n          mstore(0x40, 0x80)\n          callvalue\n          dup1\n          iszero\n          tag_1\n          jumpi\n          0x00\n          dup1\n          revert\n        tag_1:\n          pop\n          dataSize(sub_0)\n          dup1\n          dataOffset(sub_0)\n          0x00\n          codecopy\n          0x00\n          return\n        stop\n\n        sub_0: assembly {\n                /* \"contacts/SimpleStorage.sol\":77:1088  contract SimpleStorage {... */\n              mstore(0x40, 0x80)\n              callvalue\n              dup1\n              iszero\n              tag_1\n              jumpi\n              0x00\n              dup1\n              revert\n            tag_1:\n              pop\n              jumpi(tag_2, lt(calldatasize, 0x04))\n              shr(0xe0, calldataload(0x00))\n              dup1\n              0x2e64cec1\n              eq\n              tag_3\n              jumpi\n              dup1\n              0x6057361d\n              eq\n              tag_4\n              jumpi\n              dup1\n              0x6f760f41\n              eq\n              tag_5\n              jumpi\n              dup1\n              0x8bab8dd5\n              eq\n              tag_6\n              jumpi\n              dup1\n              0x9e7a13ad\n              eq\n              tag_7\n              jumpi\n            tag_2:\n              0x00\n              dup1\n              revert\n                /* \"contacts/SimpleStorage.sol\":482:570  function retrieve() public view returns (uint256) {... */\n            tag_3:\n              tag_8\n              tag_9\n              jump\t// in\n            tag_8:\n              mload(0x40)\n              tag_10\n              swap2\n              swap1\n              tag_11\n              jump\t// in\n            tag_10:\n              mload(0x40)\n              dup1\n              swap2\n              sub\n              swap1\n              return\n                /* \"contacts/SimpleStorage.sol\":380:476  function store(uint256 _favoriteNumber) public {... */\n            tag_4:\n              tag_12\n              0x04\n              dup1\n              calldatasize\n              sub\n              dup2\n              add\n              swap1\n              tag_13\n              swap2\n              swap1\n              tag_14\n              jump\t// in\n            tag_13:\n              tag_15\n              jump\t// in\n            tag_12:\n              stop\n                /* \"contacts/SimpleStorage.sol\":899:1086  function addPerson(string memory _name, uint256 _favoriteNumber) public {... */\n            tag_5:\n              tag_16\n              0x04\n              dup1\n              calldatasize\n              sub\n              dup2\n              add\n              swap1\n              tag_17\n              swap2\n              swap1\n              tag_18\n              jump\t// in\n            tag_17:\n              tag_19\n              jump\t// in\n            tag_16:\n              stop\n                /* \"contacts/SimpleStorage.sol\":319:373  mapping(string => uint256) public nameToFavoriteNumber */\n            tag_6:\n              tag_20\n              0x04\n              dup1\n              calldatasize\n              sub\n              dup2\n              add\n              swap1\n              tag_21\n              swap2\n              swap1\n              tag_22\n              jump\t// in\n            tag_21:\n              tag_23\n              jump\t// in\n            tag_20:\n              mload(0x40)\n              tag_24\n              swap2\n              swap1\n              tag_11\n              jump\t// in\n            tag_24:\n              mload(0x40)\n              dup1\n              swap2\n              sub\n              swap1\n              return\n                /* \"contacts/SimpleStorage.sol\":290:312  People[] public people */\n            tag_7:\n              tag_25\n              0x04\n              dup1\n              calldatasize\n              sub\n              dup2\n              add\n              swap1\n              tag_26\n              swap2\n              swap1\n              tag_14\n              jump\t// in\n            tag_26:\n              tag_27\n              jump\t// in\n            tag_25:\n              mload(0x40)\n              tag_28\n              swap3\n              swap2\n              swap1\n              tag_29\n              jump\t// in\n            tag_28:\n              mload(0x40)\n              dup1\n              swap2\n              sub\n              swap1\n              return\n                /* \"contacts/SimpleStorage.sol\":482:570  function retrieve() public view returns (uint256) {... */\n            tag_9:\n                /* \"contacts/SimpleStorage.sol\":523:530  uint256 */\n              0x00\n                /* \"contacts/SimpleStorage.sol\":549:563  favoriteNumber */\n              dup1\n              sload\n                /* \"contacts/SimpleStorage.sol\":542:563  return favoriteNumber */\n              swap1\n              pop\n                /* \"contacts/SimpleStorage.sol\":482:570  function retrieve() public view returns (uint256) {... */\n              swap1\n              jump\t// out\n                /* \"contacts/SimpleStorage.sol\":380:476  function store(uint256 _favoriteNumber) public {... */\n            tag_15:\n                /* \"contacts/SimpleStorage.sol\":454:469  _favoriteNumber */\n              dup1\n                /* \"contacts/SimpleStorage.sol\":437:451  favoriteNumber */\n              0x00\n                /* \"contacts/SimpleStorage.sol\":437:469  favoriteNumber = _favoriteNumber */\n              dup2\n              swap1\n              sstore\n              pop\n                /* \"contacts/SimpleStorage.sol\":380:476  function store(uint256 _favoriteNumber) public {... */\n              pop\n              jump\t// out\n                /* \"contacts/SimpleStorage.sol\":899:1086  function addPerson(string memory _name, uint256 _favoriteNumber) public {... */\n            tag_19:\n                /* \"contacts/SimpleStorage.sol\":981:987  people */\n              0x01\n                /* \"contacts/SimpleStorage.sol\":993:1023  People(_favoriteNumber, _name) */\n              mload(0x40)\n              dup1\n              0x40\n              add\n              0x40\n              mstore\n              dup1\n                /* \"contacts/SimpleStorage.sol\":1000:1015  _favoriteNumber */\n              dup4\n                /* \"contacts/SimpleStorage.sol\":993:1023  People(_favoriteNumber, _name) */\n              dup2\n              mstore\n              0x20\n              add\n                /* \"contacts/SimpleStorage.sol\":1017:1022  _name */\n              dup5\n                /* \"contacts/SimpleStorage.sol\":993:1023  People(_favoriteNumber, _name) */\n              dup2\n              mstore\n              pop\n                /* \"contacts/SimpleStorage.sol\":981:1024  people.push(People(_favoriteNumber, _name)) */\n              swap1\n              dup1\n              0x01\n              dup2\n              sload\n              add\n              dup1\n              dup3\n              sstore\n              dup1\n              swap2\n              pop\n              pop\n              0x01\n              swap1\n              sub\n              swap1\n              0x00\n              mstore\n              keccak256(0x00, 0x20)\n              swap1\n              0x02\n              mul\n              add\n              0x00\n              swap1\n              swap2\n              swap1\n              swap2\n              swap1\n              swap2\n              pop\n              0x00\n              dup3\n              add\n              mload\n              dup2\n              0x00\n              add\n              sstore\n              0x20\n              dup3\n              add\n              mload\n              dup2\n              0x01\n              add\n              swap1\n              dup2\n              tag_34\n              swap2\n              swap1\n              tag_35\n              jump\t// in\n            tag_34:\n              pop\n              pop\n              pop\n                /* \"contacts/SimpleStorage.sol\":1064:1079  _favoriteNumber */\n              dup1\n                /* \"contacts/SimpleStorage.sol\":1034:1054  nameToFavoriteNumber */\n              0x02\n                /* \"contacts/SimpleStorage.sol\":1055:1060  _name */\n              dup4\n                /* \"contacts/SimpleStorage.sol\":1034:1061  nameToFavoriteNumber[_name] */\n              mload(0x40)\n              tag_36\n              swap2\n              swap1\n              tag_37\n              jump\t// in\n            tag_36:\n              swap1\n              dup2\n              mstore\n              0x20\n              add\n              mload(0x40)\n              dup1\n              swap2\n              sub\n              swap1\n              keccak256\n                /* \"contacts/SimpleStorage.sol\":1034:1079  nameToFavoriteNumber[_name] = _favoriteNumber */\n              dup2\n              swap1\n              sstore\n              pop\n                /* \"contacts/SimpleStorage.sol\":899:1086  function addPerson(string memory _name, uint256 _favoriteNumber) public {... */\n              pop\n              pop\n              jump\t// out\n                /* \"contacts/SimpleStorage.sol\":319:373  mapping(string => uint256) public nameToFavoriteNumber */\n            tag_23:\n              0x02\n              dup2\n              dup1\n              mload\n              0x20\n              dup2\n              add\n              dup3\n              add\n              dup1\n              mload\n              dup5\n              dup3\n              mstore\n              0x20\n              dup4\n              add\n              0x20\n              dup6\n              add\n              keccak256\n              dup2\n              dup4\n              mstore\n              dup1\n              swap6\n              pop\n              pop\n              pop\n              pop\n              pop\n              pop\n              0x00\n              swap2\n              pop\n              swap1\n              pop\n              sload\n              dup2\n              jump\t// out\n                /* \"contacts/SimpleStorage.sol\":290:312  People[] public people */\n            tag_27:\n              0x01\n              dup2\n              dup2\n              sload\n              dup2\n              lt\n              tag_38\n              jumpi\n              0x00\n              dup1\n              revert\n            tag_38:\n              swap1\n              0x00\n              mstore\n              keccak256(0x00, 0x20)\n              swap1\n              0x02\n              mul\n              add\n              0x00\n              swap2\n              pop\n              swap1\n              pop\n              dup1\n              0x00\n              add\n              sload\n              swap1\n              dup1\n              0x01\n              add\n              dup1\n              sload\n              tag_40\n              swap1\n              tag_41\n              jump\t// in\n            tag_40:\n              dup1\n              0x1f\n              add\n              0x20\n              dup1\n              swap2\n              div\n              mul\n              0x20\n              add\n              mload(0x40)\n              swap1\n              dup2\n              add\n              0x40\n              mstore\n              dup1\n              swap3\n              swap2\n              swap1\n              dup2\n              dup2\n              mstore\n              0x20\n              add\n              dup3\n              dup1\n              sload\n              tag_42\n              swap1\n              tag_41\n              jump\t// in\n            tag_42:\n              dup1\n              iszero\n              tag_43\n              jumpi\n              dup1\n              0x1f\n              lt\n              tag_44\n              jumpi\n              0x0100\n              dup1\n              dup4\n              sload\n              div\n              mul\n              dup4\n              mstore\n              swap2\n              0x20\n              add\n              swap2\n              jump(tag_43)\n            tag_44:\n              dup3\n              add\n              swap2\n              swap1\n              0x00\n              mstore\n              keccak256(0x00, 0x20)\n              swap1\n            tag_45:\n              dup2\n              sload\n              dup2\n              mstore\n              swap1\n              0x01\n              add\n              swap1\n              0x20\n              add\n              dup1\n              dup4\n              gt\n              tag_45\n              jumpi\n              dup3\n              swap1\n              sub\n              0x1f\n              and\n              dup3\n              add\n              swap2\n            tag_43:\n              pop\n              pop\n              pop\n              pop\n              pop\n              swap1\n              pop\n              dup3\n              jump\t// out\n                /* \"#utility.yul\":7:84   */\n            tag_46:\n                /* \"#utility.yul\":44:51   */\n              0x00\n                /* \"#utility.yul\":73:78   */\n              dup2\n                /* \"#utility.yul\":62:78   */\n              swap1\n              pop\n                /* \"#utility.yul\":7:84   */\n              swap2\n              swap1\n              pop\n              jump\t// out\n                /* \"#utility.yul\":90:208   */\n            tag_47:\n                /* \"#utility.yul\":177:201   */\n              tag_88\n                /* \"#utility.yul\":195:200   */\n              dup2\n                /* \"#utility.yul\":177:201   */\n              tag_46\n              jump\t// in\n            tag_88:\n                /* \"#utility.yul\":172:175   */\n              dup3\n                /* \"#utility.yul\":165:202   */\n              mstore\n                /* \"#utility.yul\":90:208   */\n              pop\n              pop\n              jump\t// out\n                /* \"#utility.yul\":214:436   */\n            tag_11:\n                /* \"#utility.yul\":307:311   */\n              0x00\n                /* \"#utility.yul\":345:347   */\n              0x20\n                /* \"#utility.yul\":334:343   */\n              dup3\n                /* \"#utility.yul\":330:348   */\n              add\n                /* \"#utility.yul\":322:348   */\n              swap1\n              pop\n                /* \"#utility.yul\":358:429   */\n              tag_90\n                /* \"#utility.yul\":426:427   */\n              0x00\n                /* \"#utility.yul\":415:424   */\n              dup4\n                /* \"#utility.yul\":411:428   */\n              add\n                /* \"#utility.yul\":402:408   */\n              dup5\n                /* \"#utility.yul\":358:429   */\n              tag_47\n              jump\t// in\n            tag_90:\n                /* \"#utility.yul\":214:436   */\n              swap3\n              swap2\n              pop\n              pop\n              jump\t// out\n                /* \"#utility.yul\":442:517   */\n            tag_48:\n                /* \"#utility.yul\":475:481   */\n              0x00\n                /* \"#utility.yul\":508:510   */\n              0x40\n                /* \"#utility.yul\":502:511   */\n              mload\n                /* \"#utility.yul\":492:511   */\n              swap1\n              pop\n                /* \"#utility.yul\":442:517   */\n              swap1\n              jump\t// out\n                /* \"#utility.yul\":523:640   */\n            tag_49:\n                /* \"#utility.yul\":632:633   */\n              0x00\n                /* \"#utility.yul\":629:630   */\n              dup1\n                /* \"#utility.yul\":622:634   */\n              revert\n                /* \"#utility.yul\":646:763   */\n            tag_50:\n                /* \"#utility.yul\":755:756   */\n              0x00\n                /* \"#utility.yul\":752:753   */\n              dup1\n                /* \"#utility.yul\":745:757   */\n              revert\n                /* \"#utility.yul\":769:891   */\n            tag_51:\n                /* \"#utility.yul\":842:866   */\n              tag_95\n                /* \"#utility.yul\":860:865   */\n              dup2\n                /* \"#utility.yul\":842:866   */\n              tag_46\n              jump\t// in\n            tag_95:\n                /* \"#utility.yul\":835:840   */\n              dup2\n                /* \"#utility.yul\":832:867   */\n              eq\n                /* \"#utility.yul\":822:885   */\n              tag_96\n              jumpi\n                /* \"#utility.yul\":881:882   */\n              0x00\n                /* \"#utility.yul\":878:879   */\n              dup1\n                /* \"#utility.yul\":871:883   */\n              revert\n                /* \"#utility.yul\":822:885   */\n            tag_96:\n                /* \"#utility.yul\":769:891   */\n              pop\n              jump\t// out\n                /* \"#utility.yul\":897:1036   */\n            tag_52:\n                /* \"#utility.yul\":943:948   */\n              0x00\n                /* \"#utility.yul\":981:987   */\n              dup2\n                /* \"#utility.yul\":968:988   */\n              calldataload\n                /* \"#utility.yul\":959:988   */\n              swap1\n              pop\n                /* \"#utility.yul\":997:1030   */\n              tag_98\n                /* \"#utility.yul\":1024:1029   */\n              dup2\n                /* \"#utility.yul\":997:1030   */\n              tag_51\n              jump\t// in\n            tag_98:\n                /* \"#utility.yul\":897:1036   */\n              swap3\n              swap2\n              pop\n              pop\n              jump\t// out\n                /* \"#utility.yul\":1042:1371   */\n            tag_14:\n                /* \"#utility.yul\":1101:1107   */\n              0x00\n                /* \"#utility.yul\":1150:1152   */\n              0x20\n                /* \"#utility.yul\":1138:1147   */\n              dup3\n                /* \"#utility.yul\":1129:1136   */\n              dup5\n                /* \"#utility.yul\":1125:1148   */\n              sub\n                /* \"#utility.yul\":1121:1153   */\n              slt\n                /* \"#utility.yul\":1118:1237   */\n              iszero\n              tag_100\n              jumpi\n                /* \"#utility.yul\":1156:1235   */\n              tag_101\n              tag_49\n              jump\t// in\n            tag_101:\n                /* \"#utility.yul\":1118:1237   */\n            tag_100:\n                /* \"#utility.yul\":1276:1277   */\n              0x00\n                /* \"#utility.yul\":1301:1354   */\n              tag_102\n                /* \"#utility.yul\":1346:1353   */\n              dup5\n                /* \"#utility.yul\":1337:1343   */\n              dup3\n                /* \"#utility.yul\":1326:1335   */\n              dup6\n                /* \"#utility.yul\":1322:1344   */\n              add\n                /* \"#utility.yul\":1301:1354   */\n              tag_52\n              jump\t// in\n            tag_102:\n                /* \"#utility.yul\":1291:1354   */\n              swap2\n              pop\n                /* \"#utility.yul\":1247:1364   */\n              pop\n                /* \"#utility.yul\":1042:1371   */\n              swap3\n              swap2\n              pop\n              pop\n              jump\t// out\n                /* \"#utility.yul\":1377:1494   */\n            tag_53:\n                /* \"#utility.yul\":1486:1487   */\n              0x00\n                /* \"#utility.yul\":1483:1484   */\n              dup1\n                /* \"#utility.yul\":1476:1488   */\n              revert\n                /* \"#utility.yul\":1500:1617   */\n            tag_54:\n                /* \"#utility.yul\":1609:1610   */\n              0x00\n                /* \"#utility.yul\":1606:1607   */\n              dup1\n                /* \"#utility.yul\":1599:1611   */\n              revert\n                /* \"#utility.yul\":1623:1725   */\n            tag_55:\n                /* \"#utility.yul\":1664:1670   */\n              0x00\n                /* \"#utility.yul\":1715:1717   */\n              0x1f\n                /* \"#utility.yul\":1711:1718   */\n              not\n                /* \"#utility.yul\":1706:1708   */\n              0x1f\n                /* \"#utility.yul\":1699:1704   */\n              dup4\n                /* \"#utility.yul\":1695:1709   */\n              add\n                /* \"#utility.yul\":1691:1719   */\n              and\n                /* \"#utility.yul\":1681:1719   */\n              swap1\n              pop\n                /* \"#utility.yul\":1623:1725   */\n              swap2\n              swap1\n              pop\n              jump\t// out\n                /* \"#utility.yul\":1731:1911   */\n            tag_56:\n                /* \"#utility.yul\":1779:1856   */\n              0x4e487b7100000000000000000000000000000000000000000000000000000000\n                /* \"#utility.yul\":1776:1777   */\n              0x00\n                /* \"#utility.yul\":1769:1857   */\n              mstore\n                /* \"#utility.yul\":1876:1880   */\n              0x41\n                /* \"#utility.yul\":1873:1874   */\n              0x04\n                /* \"#utility.yul\":1866:1881   */\n              mstore\n                /* \"#utility.yul\":1900:1904   */\n              0x24\n                /* \"#utility.yul\":1897:1898   */\n              0x00\n                /* \"#utility.yul\":1890:1905   */\n              revert\n                /* \"#utility.yul\":1917:2198   */\n            tag_57:\n                /* \"#utility.yul\":2000:2027   */\n              tag_108\n                /* \"#utility.yul\":2022:2026   */\n              dup3\n                /* \"#utility.yul\":2000:2027   */\n              tag_55\n              jump\t// in\n            tag_108:\n                /* \"#utility.yul\":1992:1998   */\n              dup2\n                /* \"#utility.yul\":1988:2028   */\n              add\n                /* \"#utility.yul\":2130:2136   */\n              dup2\n                /* \"#utility.yul\":2118:2128   */\n              dup2\n                /* \"#utility.yul\":2115:2137   */\n              lt\n                /* \"#utility.yul\":2094:2112   */\n              0xffffffffffffffff\n                /* \"#utility.yul\":2082:2092   */\n              dup3\n                /* \"#utility.yul\":2079:2113   */\n              gt\n                /* \"#utility.yul\":2076:2138   */\n              or\n                /* \"#utility.yul\":2073:2161   */\n              iszero\n              tag_109\n              jumpi\n                /* \"#utility.yul\":2141:2159   */\n              tag_110\n              tag_56\n              jump\t// in\n            tag_110:\n                /* \"#utility.yul\":2073:2161   */\n            tag_109:\n                /* \"#utility.yul\":2181:2191   */\n              dup1\n                /* \"#utility.yul\":2177:2179   */\n              0x40\n                /* \"#utility.yul\":2170:2192   */\n              mstore\n                /* \"#utility.yul\":1960:2198   */\n              pop\n                /* \"#utility.yul\":1917:2198   */\n              pop\n              pop\n              jump\t// out\n                /* \"#utility.yul\":2204:2333   */\n            tag_58:\n                /* \"#utility.yul\":2238:2244   */\n              0x00\n                /* \"#utility.yul\":2265:2285   */\n              tag_112\n              tag_48\n              jump\t// in\n            tag_112:\n                /* \"#utility.yul\":2255:2285   */\n              swap1\n              pop\n                /* \"#utility.yul\":2294:2327   */\n              tag_113\n                /* \"#utility.yul\":2322:2326   */\n              dup3\n                /* \"#utility.yul\":2314:2320   */\n              dup3\n                /* \"#utility.yul\":2294:2327   */\n              tag_57\n              jump\t// in\n            tag_113:\n                /* \"#utility.yul\":2204:2333   */\n              swap2\n              swap1\n              pop\n              jump\t// out\n                /* \"#utility.yul\":2339:2647   */\n            tag_59:\n                /* \"#utility.yul\":2401:2405   */\n              0x00\n                /* \"#utility.yul\":2491:2509   */\n              0xffffffffffffffff\n                /* \"#utility.yul\":2483:2489   */\n              dup3\n                /* \"#utility.yul\":2480:2510   */\n              gt\n                /* \"#utility.yul\":2477:2533   */\n              iszero\n              tag_115\n              jumpi\n                /* \"#utility.yul\":2513:2531   */\n              tag_116\n              tag_56\n              jump\t// in\n            tag_116:\n                /* \"#utility.yul\":2477:2533   */\n            tag_115:\n                /* \"#utility.yul\":2551:2580   */\n              tag_117\n                /* \"#utility.yul\":2573:2579   */\n              dup3\n                /* \"#utility.yul\":2551:2580   */\n              tag_55\n              jump\t// in\n            tag_117:\n                /* \"#utility.yul\":2543:2580   */\n              swap1\n              pop\n                /* \"#utility.yul\":2635:2639   */\n              0x20\n                /* \"#utility.yul\":2629:2633   */\n              dup2\n                /* \"#utility.yul\":2625:2640   */\n              add\n                /* \"#utility.yul\":2617:2640   */\n              swap1\n              pop\n                /* \"#utility.yul\":2339:2647   */\n              swap2\n              swap1\n              pop\n              jump\t// out\n                /* \"#utility.yul\":2653:2807   */\n            tag_60:\n                /* \"#utility.yul\":2737:2743   */\n              dup3\n                /* \"#utility.yul\":2732:2735   */\n              dup2\n                /* \"#utility.yul\":2727:2730   */\n              dup4\n                /* \"#utility.yul\":2714:2744   */\n              calldatacopy\n                /* \"#utility.yul\":2799:2800   */\n              0x00\n                /* \"#utility.yul\":2790:2796   */\n              dup4\n                /* \"#utility.yul\":2785:2788   */\n              dup4\n                /* \"#utility.yul\":2781:2797   */\n              add\n                /* \"#utility.yul\":2774:2801   */\n              mstore\n                /* \"#utility.yul\":2653:2807   */\n              pop\n              pop\n              pop\n              jump\t// out\n                /* \"#utility.yul\":2813:3225   */\n            tag_61:\n                /* \"#utility.yul\":2891:2896   */\n              0x00\n                /* \"#utility.yul\":2916:2982   */\n              tag_120\n                /* \"#utility.yul\":2932:2981   */\n              tag_121\n                /* \"#utility.yul\":2974:2980   */\n              dup5\n                /* \"#utility.yul\":2932:2981   */\n              tag_59\n              jump\t// in\n            tag_121:\n                /* \"#utility.yul\":2916:2982   */\n              tag_58\n              jump\t// in\n            tag_120:\n                /* \"#utility.yul\":2907:2982   */\n              swap1\n              pop\n                /* \"#utility.yul\":3005:3011   */\n              dup3\n                /* \"#utility.yul\":2998:3003   */\n              dup2\n                /* \"#utility.yul\":2991:3012   */\n              mstore\n                /* \"#utility.yul\":3043:3047   */\n              0x20\n                /* \"#utility.yul\":3036:3041   */\n              dup2\n                /* \"#utility.yul\":3032:3048   */\n              add\n                /* \"#utility.yul\":3081:3084   */\n              dup5\n                /* \"#utility.yul\":3072:3078   */\n              dup5\n                /* \"#utility.yul\":3067:3070   */\n              dup5\n                /* \"#utility.yul\":3063:3079   */\n              add\n                /* \"#utility.yul\":3060:3085   */\n              gt\n                /* \"#utility.yul\":3057:3169   */\n              iszero\n              tag_122\n              jumpi\n                /* \"#utility.yul\":3088:3167   */\n              tag_123\n              tag_54\n              jump\t// in\n            tag_123:\n                /* \"#utility.yul\":3057:3169   */\n            tag_122:\n                /* \"#utility.yul\":3178:3219   */\n              tag_124\n                /* \"#utility.yul\":3212:3218   */\n              dup5\n                /* \"#utility.yul\":3207:3210   */\n              dup3\n                /* \"#utility.yul\":3202:3205   */\n              dup6\n                /* \"#utility.yul\":3178:3219   */\n              tag_60\n              jump\t// in\n            tag_124:\n                /* \"#utility.yul\":2897:3225   */\n              pop\n                /* \"#utility.yul\":2813:3225   */\n              swap4\n              swap3\n              pop\n              pop\n              pop\n              jump\t// out\n                /* \"#utility.yul\":3245:3585   */\n            tag_62:\n                /* \"#utility.yul\":3301:3306   */\n              0x00\n                /* \"#utility.yul\":3350:3353   */\n              dup3\n                /* \"#utility.yul\":3343:3347   */\n              0x1f\n                /* \"#utility.yul\":3335:3341   */\n              dup4\n                /* \"#utility.yul\":3331:3348   */\n              add\n                /* \"#utility.yul\":3327:3354   */\n              slt\n                /* \"#utility.yul\":3317:3439   */\n              tag_126\n              jumpi\n                /* \"#utility.yul\":3358:3437   */\n              tag_127\n              tag_53\n              jump\t// in\n            tag_127:\n                /* \"#utility.yul\":3317:3439   */\n            tag_126:\n                /* \"#utility.yul\":3475:3481   */\n              dup2\n                /* \"#utility.yul\":3462:3482   */\n              calldataload\n                /* \"#utility.yul\":3500:3579   */\n              tag_128\n                /* \"#utility.yul\":3575:3578   */\n              dup5\n                /* \"#utility.yul\":3567:3573   */\n              dup3\n                /* \"#utility.yul\":3560:3564   */\n              0x20\n                /* \"#utility.yul\":3552:3558   */\n              dup7\n                /* \"#utility.yul\":3548:3565   */\n              add\n                /* \"#utility.yul\":3500:3579   */\n              tag_61\n              jump\t// in\n            tag_128:\n                /* \"#utility.yul\":3491:3579   */\n              swap2\n              pop\n                /* \"#utility.yul\":3307:3585   */\n              pop\n                /* \"#utility.yul\":3245:3585   */\n              swap3\n              swap2\n              pop\n              pop\n              jump\t// out\n                /* \"#utility.yul\":3591:4245   */\n            tag_18:\n                /* \"#utility.yul\":3669:3675   */\n              0x00\n                /* \"#utility.yul\":3677:3683   */\n              dup1\n                /* \"#utility.yul\":3726:3728   */\n              0x40\n                /* \"#utility.yul\":3714:3723   */\n              dup4\n                /* \"#utility.yul\":3705:3712   */\n              dup6\n                /* \"#utility.yul\":3701:3724   */\n              sub\n                /* \"#utility.yul\":3697:3729   */\n              slt\n                /* \"#utility.yul\":3694:3813   */\n              iszero\n              tag_130\n              jumpi\n                /* \"#utility.yul\":3732:3811   */\n              tag_131\n              tag_49\n              jump\t// in\n            tag_131:\n                /* \"#utility.yul\":3694:3813   */\n            tag_130:\n                /* \"#utility.yul\":3880:3881   */\n              0x00\n                /* \"#utility.yul\":3869:3878   */\n              dup4\n                /* \"#utility.yul\":3865:3882   */\n              add\n                /* \"#utility.yul\":3852:3883   */\n              calldataload\n                /* \"#utility.yul\":3910:3928   */\n              0xffffffffffffffff\n                /* \"#utility.yul\":3902:3908   */\n              dup2\n                /* \"#utility.yul\":3899:3929   */\n              gt\n                /* \"#utility.yul\":3896:4013   */\n              iszero\n              tag_132\n              jumpi\n                /* \"#utility.yul\":3932:4011   */\n              tag_133\n              tag_50\n              jump\t// in\n            tag_133:\n                /* \"#utility.yul\":3896:4013   */\n            tag_132:\n                /* \"#utility.yul\":4037:4100   */\n              tag_134\n                /* \"#utility.yul\":4092:4099   */\n              dup6\n                /* \"#utility.yul\":4083:4089   */\n              dup3\n                /* \"#utility.yul\":4072:4081   */\n              dup7\n                /* \"#utility.yul\":4068:4090   */\n              add\n                /* \"#utility.yul\":4037:4100   */\n              tag_62\n              jump\t// in\n            tag_134:\n                /* \"#utility.yul\":4027:4100   */\n              swap3\n              pop\n                /* \"#utility.yul\":3823:4110   */\n              pop\n                /* \"#utility.yul\":4149:4151   */\n              0x20\n                /* \"#utility.yul\":4175:4228   */\n              tag_135\n                /* \"#utility.yul\":4220:4227   */\n              dup6\n                /* \"#utility.yul\":4211:4217   */\n              dup3\n                /* \"#utility.yul\":4200:4209   */\n              dup7\n                /* \"#utility.yul\":4196:4218   */\n              add\n                /* \"#utility.yul\":4175:4228   */\n              tag_52\n              jump\t// in\n            tag_135:\n                /* \"#utility.yul\":4165:4228   */\n              swap2\n              pop\n                /* \"#utility.yul\":4120:4238   */\n              pop\n                /* \"#utility.yul\":3591:4245   */\n              swap3\n              pop\n              swap3\n              swap1\n              pop\n              jump\t// out\n                /* \"#utility.yul\":4251:4760   */\n            tag_22:\n                /* \"#utility.yul\":4320:4326   */\n              0x00\n                /* \"#utility.yul\":4369:4371   */\n              0x20\n                /* \"#utility.yul\":4357:4366   */\n              dup3\n                /* \"#utility.yul\":4348:4355   */\n              dup5\n                /* \"#utility.yul\":4344:4367   */\n              sub\n                /* \"#utility.yul\":4340:4372   */\n              slt\n                /* \"#utility.yul\":4337:4456   */\n              iszero\n              tag_137\n              jumpi\n                /* \"#utility.yul\":4375:4454   */\n              tag_138\n              tag_49\n              jump\t// in\n            tag_138:\n                /* \"#utility.yul\":4337:4456   */\n            tag_137:\n                /* \"#utility.yul\":4523:4524   */\n              0x00\n                /* \"#utility.yul\":4512:4521   */\n              dup3\n                /* \"#utility.yul\":4508:4525   */\n              add\n                /* \"#utility.yul\":4495:4526   */\n              calldataload\n                /* \"#utility.yul\":4553:4571   */\n              0xffffffffffffffff\n                /* \"#utility.yul\":4545:4551   */\n              dup2\n                /* \"#utility.yul\":4542:4572   */\n              gt\n                /* \"#utility.yul\":4539:4656   */\n              iszero\n              tag_139\n              jumpi\n                /* \"#utility.yul\":4575:4654   */\n              tag_140\n              tag_50\n              jump\t// in\n            tag_140:\n                /* \"#utility.yul\":4539:4656   */\n            tag_139:\n                /* \"#utility.yul\":4680:4743   */\n              tag_141\n                /* \"#utility.yul\":4735:4742   */\n              dup5\n                /* \"#utility.yul\":4726:4732   */\n              dup3\n                /* \"#utility.yul\":4715:4724   */\n              dup6\n                /* \"#utility.yul\":4711:4733   */\n              add\n                /* \"#utility.yul\":4680:4743   */\n              tag_62\n              jump\t// in\n            tag_141:\n                /* \"#utility.yul\":4670:4743   */\n              swap2\n              pop\n                /* \"#utility.yul\":4466:4753   */\n              pop\n                /* \"#utility.yul\":4251:4760   */\n              swap3\n              swap2\n              pop\n              pop\n              jump\t// out\n                /* \"#utility.yul\":4766:4865   */\n            tag_63:\n                /* \"#utility.yul\":4818:4824   */\n              0x00\n                /* \"#utility.yul\":4852:4857   */\n              dup2\n                /* \"#utility.yul\":4846:4858   */\n              mload\n                /* \"#utility.yul\":4836:4858   */\n              swap1\n              pop\n                /* \"#utility.yul\":4766:4865   */\n              swap2\n              swap1\n              pop\n              jump\t// out\n                /* \"#utility.yul\":4871:5040   */\n            tag_64:\n                /* \"#utility.yul\":4955:4966   */\n              0x00\n                /* \"#utility.yul\":4989:4995   */\n              dup3\n                /* \"#utility.yul\":4984:4987   */\n              dup3\n                /* \"#utility.yul\":4977:4996   */\n              mstore\n                /* \"#utility.yul\":5029:5033   */\n              0x20\n                /* \"#utility.yul\":5024:5027   */\n              dup3\n                /* \"#utility.yul\":5020:5034   */\n              add\n                /* \"#utility.yul\":5005:5034   */\n              swap1\n              pop\n                /* \"#utility.yul\":4871:5040   */\n              swap3\n              swap2\n              pop\n              pop\n              jump\t// out\n                /* \"#utility.yul\":5046:5353   */\n            tag_65:\n                /* \"#utility.yul\":5114:5115   */\n              0x00\n                /* \"#utility.yul\":5124:5237   */\n            tag_145:\n                /* \"#utility.yul\":5138:5144   */\n              dup4\n                /* \"#utility.yul\":5135:5136   */\n              dup2\n                /* \"#utility.yul\":5132:5145   */\n              lt\n                /* \"#utility.yul\":5124:5237   */\n              iszero\n              tag_147\n              jumpi\n                /* \"#utility.yul\":5223:5224   */\n              dup1\n                /* \"#utility.yul\":5218:5221   */\n              dup3\n                /* \"#utility.yul\":5214:5225   */\n              add\n                /* \"#utility.yul\":5208:5226   */\n              mload\n                /* \"#utility.yul\":5204:5205   */\n              dup2\n                /* \"#utility.yul\":5199:5202   */\n              dup5\n                /* \"#utility.yul\":5195:5206   */\n              add\n                /* \"#utility.yul\":5188:5227   */\n              mstore\n                /* \"#utility.yul\":5160:5162   */\n              0x20\n                /* \"#utility.yul\":5157:5158   */\n              dup2\n                /* \"#utility.yul\":5153:5163   */\n              add\n                /* \"#utility.yul\":5148:5163   */\n              swap1\n              pop\n                /* \"#utility.yul\":5124:5237   */\n              jump(tag_145)\n            tag_147:\n                /* \"#utility.yul\":5255:5261   */\n              dup4\n                /* \"#utility.yul\":5252:5253   */\n              dup2\n                /* \"#utility.yul\":5249:5262   */\n              gt\n                /* \"#utility.yul\":5246:5347   */\n              iszero\n              tag_148\n              jumpi\n                /* \"#utility.yul\":5335:5336   */\n              0x00\n                /* \"#utility.yul\":5326:5332   */\n              dup5\n                /* \"#utility.yul\":5321:5324   */\n              dup5\n                /* \"#utility.yul\":5317:5333   */\n              add\n                /* \"#utility.yul\":5310:5337   */\n              mstore\n                /* \"#utility.yul\":5246:5347   */\n            tag_148:\n                /* \"#utility.yul\":5095:5353   */\n              pop\n                /* \"#utility.yul\":5046:5353   */\n              pop\n              pop\n              pop\n              jump\t// out\n                /* \"#utility.yul\":5359:5723   */\n            tag_66:\n                /* \"#utility.yul\":5447:5450   */\n              0x00\n                /* \"#utility.yul\":5475:5514   */\n              tag_150\n                /* \"#utility.yul\":5508:5513   */\n              dup3\n                /* \"#utility.yul\":5475:5514   */\n              tag_63\n              jump\t// in\n            tag_150:\n                /* \"#utility.yul\":5530:5601   */\n              tag_151\n                /* \"#utility.yul\":5594:5600   */\n              dup2\n                /* \"#utility.yul\":5589:5592   */\n              dup6\n                /* \"#utility.yul\":5530:5601   */\n              tag_64\n              jump\t// in\n            tag_151:\n                /* \"#utility.yul\":5523:5601   */\n              swap4\n              pop\n                /* \"#utility.yul\":5610:5662   */\n              tag_152\n                /* \"#utility.yul\":5655:5661   */\n              dup2\n                /* \"#utility.yul\":5650:5653   */\n              dup6\n                /* \"#utility.yul\":5643:5647   */\n              0x20\n                /* \"#utility.yul\":5636:5641   */\n              dup7\n                /* \"#utility.yul\":5632:5648   */\n              add\n                /* \"#utility.yul\":5610:5662   */\n              tag_65\n              jump\t// in\n            tag_152:\n                /* \"#utility.yul\":5687:5716   */\n              tag_153\n                /* \"#utility.yul\":5709:5715   */\n              dup2\n                /* \"#utility.yul\":5687:5716   */\n              tag_55\n              jump\t// in\n            tag_153:\n                /* \"#utility.yul\":5682:5685   */\n              dup5\n                /* \"#utility.yul\":5678:5717   */\n              add\n                /* \"#utility.yul\":5671:5717   */\n              swap2\n              pop\n                /* \"#utility.yul\":5451:5723   */\n              pop\n                /* \"#utility.yul\":5359:5723   */\n              swap3\n              swap2\n              pop\n              pop\n              jump\t// out\n                /* \"#utility.yul\":5729:6152   */\n            tag_29:\n                /* \"#utility.yul\":5870:5874   */\n              0x00\n                /* \"#utility.yul\":5908:5910   */\n              0x40\n                /* \"#utility.yul\":5897:5906   */\n              dup3\n                /* \"#utility.yul\":5893:5911   */\n              add\n                /* \"#utility.yul\":5885:5911   */\n              swap1\n              pop\n                /* \"#utility.yul\":5921:5992   */\n              tag_155\n                /* \"#utility.yul\":5989:5990   */\n              0x00\n                /* \"#utility.yul\":5978:5987   */\n              dup4\n                /* \"#utility.yul\":5974:5991   */\n              add\n                /* \"#utility.yul\":5965:5971   */\n              dup6\n                /* \"#utility.yul\":5921:5992   */\n              tag_47\n              jump\t// in\n            tag_155:\n                /* \"#utility.yul\":6039:6048   */\n              dup2\n                /* \"#utility.yul\":6033:6037   */\n              dup2\n                /* \"#utility.yul\":6029:6049   */\n              sub\n                /* \"#utility.yul\":6024:6026   */\n              0x20\n                /* \"#utility.yul\":6013:6022   */\n              dup4\n                /* \"#utility.yul\":6009:6027   */\n              add\n                /* \"#utility.yul\":6002:6050   */\n              mstore\n                /* \"#utility.yul\":6067:6145   */\n              tag_156\n                /* \"#utility.yul\":6140:6144   */\n              dup2\n                /* \"#utility.yul\":6131:6137   */\n              dup5\n                /* \"#utility.yul\":6067:6145   */\n              tag_66\n              jump\t// in\n            tag_156:\n                /* \"#utility.yul\":6059:6145   */\n              swap1\n              pop\n                /* \"#utility.yul\":5729:6152   */\n              swap4\n              swap3\n              pop\n              pop\n              pop\n              jump\t// out\n                /* \"#utility.yul\":6158:6338   */\n            tag_67:\n                /* \"#utility.yul\":6206:6283   */\n              0x4e487b7100000000000000000000000000000000000000000000000000000000\n                /* \"#utility.yul\":6203:6204   */\n              0x00\n                /* \"#utility.yul\":6196:6284   */\n              mstore\n                /* \"#utility.yul\":6303:6307   */\n              0x22\n                /* \"#utility.yul\":6300:6301   */\n              0x04\n                /* \"#utility.yul\":6293:6308   */\n              mstore\n                /* \"#utility.yul\":6327:6331   */\n              0x24\n                /* \"#utility.yul\":6324:6325   */\n              0x00\n                /* \"#utility.yul\":6317:6332   */\n              revert\n                /* \"#utility.yul\":6344:6664   */\n            tag_41:\n                /* \"#utility.yul\":6388:6394   */\n              0x00\n                /* \"#utility.yul\":6425:6426   */\n              0x02\n                /* \"#utility.yul\":6419:6423   */\n              dup3\n                /* \"#utility.yul\":6415:6427   */\n              div\n                /* \"#utility.yul\":6405:6427   */\n              swap1\n              pop\n                /* \"#utility.yul\":6472:6473   */\n              0x01\n                /* \"#utility.yul\":6466:6470   */\n              dup3\n                /* \"#utility.yul\":6462:6474   */\n              and\n                /* \"#utility.yul\":6493:6511   */\n              dup1\n                /* \"#utility.yul\":6483:6564   */\n              tag_159\n              jumpi\n                /* \"#utility.yul\":6549:6553   */\n              0x7f\n                /* \"#utility.yul\":6541:6547   */\n              dup3\n                /* \"#utility.yul\":6537:6554   */\n              and\n                /* \"#utility.yul\":6527:6554   */\n              swap2\n              pop\n                /* \"#utility.yul\":6483:6564   */\n            tag_159:\n                /* \"#utility.yul\":6611:6613   */\n              0x20\n                /* \"#utility.yul\":6603:6609   */\n              dup3\n                /* \"#utility.yul\":6600:6614   */\n              lt\n                /* \"#utility.yul\":6580:6598   */\n              dup2\n                /* \"#utility.yul\":6577:6615   */\n              sub\n                /* \"#utility.yul\":6574:6658   */\n              tag_160\n              jumpi\n                /* \"#utility.yul\":6630:6648   */\n              tag_161\n              tag_67\n              jump\t// in\n            tag_161:\n                /* \"#utility.yul\":6574:6658   */\n            tag_160:\n                /* \"#utility.yul\":6395:6664   */\n              pop\n                /* \"#utility.yul\":6344:6664   */\n              swap2\n              swap1\n              pop\n              jump\t// out\n                /* \"#utility.yul\":6670:6811   */\n            tag_68:\n                /* \"#utility.yul\":6719:6723   */\n              0x00\n                /* \"#utility.yul\":6742:6745   */\n              dup2\n                /* \"#utility.yul\":6734:6745   */\n              swap1\n              pop\n                /* \"#utility.yul\":6765:6768   */\n              dup2\n                /* \"#utility.yul\":6762:6763   */\n              0x00\n                /* \"#utility.yul\":6755:6769   */\n              mstore\n                /* \"#utility.yul\":6799:6803   */\n              0x20\n                /* \"#utility.yul\":6796:6797   */\n              0x00\n                /* \"#utility.yul\":6786:6804   */\n              keccak256\n                /* \"#utility.yul\":6778:6804   */\n              swap1\n              pop\n                /* \"#utility.yul\":6670:6811   */\n              swap2\n              swap1\n              pop\n              jump\t// out\n                /* \"#utility.yul\":6817:6910   */\n            tag_69:\n                /* \"#utility.yul\":6854:6860   */\n              0x00\n                /* \"#utility.yul\":6901:6903   */\n              0x20\n                /* \"#utility.yul\":6896:6898   */\n              0x1f\n                /* \"#utility.yul\":6889:6894   */\n              dup4\n                /* \"#utility.yul\":6885:6899   */\n              add\n                /* \"#utility.yul\":6881:6904   */\n              div\n                /* \"#utility.yul\":6871:6904   */\n              swap1\n              pop\n                /* \"#utility.yul\":6817:6910   */\n              swap2\n              swap1\n              pop\n              jump\t// out\n                /* \"#utility.yul\":6916:7023   */\n            tag_70:\n                /* \"#utility.yul\":6960:6968   */\n              0x00\n                /* \"#utility.yul\":7010:7015   */\n              dup3\n                /* \"#utility.yul\":7004:7008   */\n              dup3\n                /* \"#utility.yul\":7000:7016   */\n              shl\n                /* \"#utility.yul\":6979:7016   */\n              swap1\n              pop\n                /* \"#utility.yul\":6916:7023   */\n              swap3\n              swap2\n              pop\n              pop\n              jump\t// out\n                /* \"#utility.yul\":7029:7422   */\n            tag_71:\n                /* \"#utility.yul\":7098:7104   */\n              0x00\n                /* \"#utility.yul\":7148:7149   */\n              0x08\n                /* \"#utility.yul\":7136:7146   */\n              dup4\n                /* \"#utility.yul\":7132:7150   */\n              mul\n                /* \"#utility.yul\":7171:7268   */\n              tag_166\n                /* \"#utility.yul\":7201:7267   */\n              0xffffffffffffffffffffffffffffffffffffffffffffffffffffffffffffffff\n                /* \"#utility.yul\":7190:7199   */\n              dup3\n                /* \"#utility.yul\":7171:7268   */\n              tag_70\n              jump\t// in\n            tag_166:\n                /* \"#utility.yul\":7289:7328   */\n              tag_167\n                /* \"#utility.yul\":7319:7327   */\n              dup7\n                /* \"#utility.yul\":7308:7317   */\n              dup4\n                /* \"#utility.yul\":7289:7328   */\n              tag_70\n              jump\t// in\n            tag_167:\n                /* \"#utility.yul\":7277:7328   */\n              swap6\n              pop\n                /* \"#utility.yul\":7361:7365   */\n              dup1\n                /* \"#utility.yul\":7357:7366   */\n              not\n                /* \"#utility.yul\":7350:7355   */\n              dup5\n                /* \"#utility.yul\":7346:7367   */\n              and\n                /* \"#utility.yul\":7337:7367   */\n              swap4\n              pop\n                /* \"#utility.yul\":7410:7414   */\n              dup1\n                /* \"#utility.yul\":7400:7408   */\n              dup7\n                /* \"#utility.yul\":7396:7415   */\n              and\n                /* \"#utility.yul\":7389:7394   */\n              dup5\n                /* \"#utility.yul\":7386:7416   */\n              or\n                /* \"#utility.yul\":7376:7416   */\n              swap3\n              pop\n                /* \"#utility.yul\":7105:7422   */\n              pop\n              pop\n                /* \"#utility.yul\":7029:7422   */\n              swap4\n              swap3\n              pop\n              pop\n              pop\n              jump\t// out\n                /* \"#utility.yul\":7428:7488   */\n            tag_72:\n                /* \"#utility.yul\":7456:7459   */\n              0x00\n                /* \"#utility.yul\":7477:7482   */\n              dup2\n                /* \"#utility.yul\":7470:7482   */\n              swap1\n              pop\n                /* \"#utility.yul\":7428:7488   */\n              swap2\n              swap1\n              pop\n              jump\t// out\n                /* \"#utility.yul\":7494:7636   */\n            tag_73:\n                /* \"#utility.yul\":7544:7553   */\n              0x00\n                /* \"#utility.yul\":7577:7630   */\n              tag_170\n                /* \"#utility.yul\":7595:7629   */\n              tag_171\n                /* \"#utility.yul\":7604:7628   */\n              tag_172\n                /* \"#utility.yul\":7622:7627   */\n              dup5\n                /* \"#utility.yul\":7604:7628   */\n              tag_46\n              jump\t// in\n            tag_172:\n                /* \"#utility.yul\":7595:7629   */\n              tag_72\n              jump\t// in\n            tag_171:\n                /* \"#utility.yul\":7577:7630   */\n              tag_46\n              jump\t// in\n            tag_170:\n                /* \"#utility.yul\":7564:7630   */\n              swap1\n              pop\n                /* \"#utility.yul\":7494:7636   */\n              swap2\n              swap1\n              pop\n              jump\t// out\n                /* \"#utility.yul\":7642:7717   */\n            tag_74:\n                /* \"#utility.yul\":7685:7688   */\n              0x00\n                /* \"#utility.yul\":7706:7711   */\n              dup2\n                /* \"#utility.yul\":7699:7711   */\n              swap1\n              pop\n                /* \"#utility.yul\":7642:7717   */\n              swap2\n              swap1\n              pop\n              jump\t// out\n                /* \"#utility.yul\":7723:7992   */\n            tag_75:\n                /* \"#utility.yul\":7833:7872   */\n              tag_175\n                /* \"#utility.yul\":7864:7871   */\n              dup4\n                /* \"#utility.yul\":7833:7872   */\n              tag_73\n              jump\t// in\n            tag_175:\n                /* \"#utility.yul\":7894:7985   */\n              tag_176\n                /* \"#utility.yul\":7943:7984   */\n              tag_177\n                /* \"#utility.yul\":7967:7983   */\n              dup3\n                /* \"#utility.yul\":7943:7984   */\n              tag_74\n              jump\t// in\n            tag_177:\n                /* \"#utility.yul\":7935:7941   */\n              dup5\n                /* \"#utility.yul\":7928:7932   */\n              dup5\n                /* \"#utility.yul\":7922:7933   */\n              sload\n                /* \"#utility.yul\":7894:7985   */\n              tag_71\n              jump\t// in\n            tag_176:\n                /* \"#utility.yul\":7888:7892   */\n              dup3\n                /* \"#utility.yul\":7881:7986   */\n              sstore\n                /* \"#utility.yul\":7799:7992   */\n              pop\n                /* \"#utility.yul\":7723:7992   */\n              pop\n              pop\n              pop\n              jump\t// out\n                /* \"#utility.yul\":7998:8071   */\n            tag_76:\n                /* \"#utility.yul\":8043:8046   */\n              0x00\n                /* \"#utility.yul\":7998:8071   */\n              swap1\n              jump\t// out\n                /* \"#utility.yul\":8077:8266   */\n            tag_77:\n                /* \"#utility.yul\":8154:8186   */\n              tag_180\n              tag_76\n              jump\t// in\n            tag_180:\n                /* \"#utility.yul\":8195:8260   */\n              tag_181\n                /* \"#utility.yul\":8253:8259   */\n              dup2\n                /* \"#utility.yul\":8245:8251   */\n              dup5\n                /* \"#utility.yul\":8239:8243   */\n              dup5\n                /* \"#utility.yul\":8195:8260   */\n              tag_75\n              jump\t// in\n            tag_181:\n                /* \"#utility.yul\":8130:8266   */\n              pop\n                /* \"#utility.yul\":8077:8266   */\n              pop\n              pop\n              jump\t// out\n                /* \"#utility.yul\":8272:8458   */\n            tag_78:\n                /* \"#utility.yul\":8332:8452   */\n            tag_183:\n                /* \"#utility.yul\":8349:8352   */\n              dup2\n                /* \"#utility.yul\":8342:8347   */\n              dup2\n                /* \"#utility.yul\":8339:8353   */\n              lt\n                /* \"#utility.yul\":8332:8452   */\n              iszero\n              tag_185\n              jumpi\n                /* \"#utility.yul\":8403:8442   */\n              tag_186\n                /* \"#utility.yul\":8440:8441   */\n              0x00\n                /* \"#utility.yul\":8433:8438   */\n              dup3\n                /* \"#utility.yul\":8403:8442   */\n              tag_77\n              jump\t// in\n            tag_186:\n                /* \"#utility.yul\":8376:8377   */\n              0x01\n                /* \"#utility.yul\":8369:8374   */\n              dup2\n                /* \"#utility.yul\":8365:8378   */\n              add\n                /* \"#utility.yul\":8356:8378   */\n              swap1\n              pop\n                /* \"#utility.yul\":8332:8452   */\n              jump(tag_183)\n            tag_185:\n                /* \"#utility.yul\":8272:8458   */\n              pop\n              pop\n              jump\t// out\n                /* \"#utility.yul\":8464:9007   */\n            tag_79:\n                /* \"#utility.yul\":8565:8567   */\n              0x1f\n                /* \"#utility.yul\":8560:8563   */\n              dup3\n                /* \"#utility.yul\":8557:8568   */\n              gt\n                /* \"#utility.yul\":8554:9000   */\n              iszero\n              tag_188\n              jumpi\n                /* \"#utility.yul\":8599:8637   */\n              tag_189\n                /* \"#utility.yul\":8631:8636   */\n              dup2\n                /* \"#utility.yul\":8599:8637   */\n              tag_68\n              jump\t// in\n            tag_189:\n                /* \"#utility.yul\":8683:8712   */\n              tag_190\n                /* \"#utility.yul\":8701:8711   */\n              dup5\n                /* \"#utility.yul\":8683:8712   */\n              tag_69\n              jump\t// in\n            tag_190:\n                /* \"#utility.yul\":8673:8681   */\n              dup2\n                /* \"#utility.yul\":8669:8713   */\n              add\n                /* \"#utility.yul\":8866:8868   */\n              0x20\n                /* \"#utility.yul\":8854:8864   */\n              dup6\n                /* \"#utility.yul\":8851:8869   */\n              lt\n                /* \"#utility.yul\":8848:8897   */\n              iszero\n              tag_191\n              jumpi\n                /* \"#utility.yul\":8887:8895   */\n              dup2\n                /* \"#utility.yul\":8872:8895   */\n              swap1\n              pop\n                /* \"#utility.yul\":8848:8897   */\n            tag_191:\n                /* \"#utility.yul\":8910:8990   */\n              tag_192\n                /* \"#utility.yul\":8966:8988   */\n              tag_193\n                /* \"#utility.yul\":8984:8987   */\n              dup6\n                /* \"#utility.yul\":8966:8988   */\n              tag_69\n              jump\t// in\n            tag_193:\n                /* \"#utility.yul\":8956:8964   */\n              dup4\n                /* \"#utility.yul\":8952:8989   */\n              add\n                /* \"#utility.yul\":8939:8950   */\n              dup3\n                /* \"#utility.yul\":8910:8990   */\n              tag_78\n              jump\t// in\n            tag_192:\n                /* \"#utility.yul\":8569:9000   */\n              pop\n              pop\n                /* \"#utility.yul\":8554:9000   */\n            tag_188:\n                /* \"#utility.yul\":8464:9007   */\n              pop\n              pop\n              pop\n              jump\t// out\n                /* \"#utility.yul\":9013:9130   */\n            tag_80:\n                /* \"#utility.yul\":9067:9075   */\n              0x00\n                /* \"#utility.yul\":9117:9122   */\n              dup3\n                /* \"#utility.yul\":9111:9115   */\n              dup3\n                /* \"#utility.yul\":9107:9123   */\n              shr\n                /* \"#utility.yul\":9086:9123   */\n              swap1\n              pop\n                /* \"#utility.yul\":9013:9130   */\n              swap3\n              swap2\n              pop\n              pop\n              jump\t// out\n                /* \"#utility.yul\":9136:9305   */\n            tag_81:\n                /* \"#utility.yul\":9180:9186   */\n              0x00\n                /* \"#utility.yul\":9213:9264   */\n              tag_196\n                /* \"#utility.yul\":9261:9262   */\n              0x00\n                /* \"#utility.yul\":9257:9263   */\n              not\n                /* \"#utility.yul\":9249:9254   */\n              dup5\n                /* \"#utility.yul\":9246:9247   */\n              0x08\n                /* \"#utility.yul\":9242:9255   */\n              mul\n                /* \"#utility.yul\":9213:9264   */\n              tag_80\n              jump\t// in\n            tag_196:\n                /* \"#utility.yul\":9209:9265   */\n              not\n                /* \"#utility.yul\":9294:9298   */\n              dup1\n                /* \"#utility.yul\":9288:9292   */\n              dup4\n                /* \"#utility.yul\":9284:9299   */\n              and\n                /* \"#utility.yul\":9274:9299   */\n              swap2\n              pop\n                /* \"#utility.yul\":9187:9305   */\n              pop\n                /* \"#utility.yul\":9136:9305   */\n              swap3\n              swap2\n              pop\n              pop\n              jump\t// out\n                /* \"#utility.yul\":9310:9605   */\n            tag_82:\n                /* \"#utility.yul\":9386:9390   */\n              0x00\n                /* \"#utility.yul\":9532:9561   */\n              tag_198\n                /* \"#utility.yul\":9557:9560   */\n              dup4\n                /* \"#utility.yul\":9551:9555   */\n              dup4\n                /* \"#utility.yul\":9532:9561   */\n              tag_81\n              jump\t// in\n            tag_198:\n                /* \"#utility.yul\":9524:9561   */\n              swap2\n              pop\n                /* \"#utility.yul\":9594:9597   */\n              dup3\n                /* \"#utility.yul\":9591:9592   */\n              0x02\n                /* \"#utility.yul\":9587:9598   */\n              mul\n                /* \"#utility.yul\":9581:9585   */\n              dup3\n                /* \"#utility.yul\":9578:9599   */\n              or\n                /* \"#utility.yul\":9570:9599   */\n              swap1\n              pop\n                /* \"#utility.yul\":9310:9605   */\n              swap3\n              swap2\n              pop\n              pop\n              jump\t// out\n                /* \"#utility.yul\":9610:11005   */\n            tag_35:\n                /* \"#utility.yul\":9727:9764   */\n              tag_200\n                /* \"#utility.yul\":9760:9763   */\n              dup3\n                /* \"#utility.yul\":9727:9764   */\n              tag_63\n              jump\t// in\n            tag_200:\n                /* \"#utility.yul\":9829:9847   */\n              0xffffffffffffffff\n                /* \"#utility.yul\":9821:9827   */\n              dup2\n                /* \"#utility.yul\":9818:9848   */\n              gt\n                /* \"#utility.yul\":9815:9871   */\n              iszero\n              tag_201\n              jumpi\n                /* \"#utility.yul\":9851:9869   */\n              tag_202\n              tag_56\n              jump\t// in\n            tag_202:\n                /* \"#utility.yul\":9815:9871   */\n            tag_201:\n                /* \"#utility.yul\":9895:9933   */\n              tag_203\n                /* \"#utility.yul\":9927:9931   */\n              dup3\n                /* \"#utility.yul\":9921:9932   */\n              sload\n                /* \"#utility.yul\":9895:9933   */\n              tag_41\n              jump\t// in\n            tag_203:\n                /* \"#utility.yul\":9980:10047   */\n              tag_204\n                /* \"#utility.yul\":10040:10046   */\n              dup3\n                /* \"#utility.yul\":10032:10038   */\n              dup3\n                /* \"#utility.yul\":10026:10030   */\n              dup6\n                /* \"#utility.yul\":9980:10047   */\n              tag_79\n              jump\t// in\n            tag_204:\n                /* \"#utility.yul\":10074:10075   */\n              0x00\n                /* \"#utility.yul\":10098:10102   */\n              0x20\n                /* \"#utility.yul\":10085:10102   */\n              swap1\n              pop\n                /* \"#utility.yul\":10130:10132   */\n              0x1f\n                /* \"#utility.yul\":10122:10128   */\n              dup4\n                /* \"#utility.yul\":10119:10133   */\n              gt\n                /* \"#utility.yul\":10147:10148   */\n              0x01\n                /* \"#utility.yul\":10142:10760   */\n              dup2\n              eq\n              tag_206\n              jumpi\n                /* \"#utility.yul\":10804:10805   */\n              0x00\n                /* \"#utility.yul\":10821:10827   */\n              dup5\n                /* \"#utility.yul\":10818:10895   */\n              iszero\n              tag_207\n              jumpi\n                /* \"#utility.yul\":10870:10879   */\n              dup3\n                /* \"#utility.yul\":10865:10868   */\n              dup8\n                /* \"#utility.yul\":10861:10880   */\n              add\n                /* \"#utility.yul\":10855:10881   */\n              mload\n                /* \"#utility.yul\":10846:10881   */\n              swap1\n              pop\n                /* \"#utility.yul\":10818:10895   */\n            tag_207:\n                /* \"#utility.yul\":10921:10988   */\n              tag_208\n                /* \"#utility.yul\":10981:10987   */\n              dup6\n                /* \"#utility.yul\":10974:10979   */\n              dup3\n                /* \"#utility.yul\":10921:10988   */\n              tag_82\n              jump\t// in\n            tag_208:\n                /* \"#utility.yul\":10915:10919   */\n              dup7\n                /* \"#utility.yul\":10908:10989   */\n              sstore\n                /* \"#utility.yul\":10777:10999   */\n              pop\n                /* \"#utility.yul\":10112:10999   */\n              jump(tag_205)\n                /* \"#utility.yul\":10142:10760   */\n            tag_206:\n                /* \"#utility.yul\":10194:10198   */\n              0x1f\n                /* \"#utility.yul\":10190:10199   */\n              not\n                /* \"#utility.yul\":10182:10188   */\n              dup5\n                /* \"#utility.yul\":10178:10200   */\n              and\n                /* \"#utility.yul\":10228:10265   */\n              tag_209\n                /* \"#utility.yul\":10260:10264   */\n              dup7\n                /* \"#utility.yul\":10228:10265   */\n              tag_68\n              jump\t// in\n            tag_209:\n                /* \"#utility.yul\":10287:10288   */\n              0x00\n                /* \"#utility.yul\":10301:10509   */\n            tag_210:\n                /* \"#utility.yul\":10315:10322   */\n              dup3\n                /* \"#utility.yul\":10312:10313   */\n              dup2\n                /* \"#utility.yul\":10309:10323   */\n              lt\n                /* \"#utility.yul\":10301:10509   */\n              iszero\n              tag_212\n              jumpi\n                /* \"#utility.yul\":10394:10403   */\n              dup5\n                /* \"#utility.yul\":10389:10392   */\n              dup10\n                /* \"#utility.yul\":10385:10404   */\n              add\n                /* \"#utility.yul\":10379:10405   */\n              mload\n                /* \"#utility.yul\":10371:10377   */\n              dup3\n                /* \"#utility.yul\":10364:10406   */\n              sstore\n                /* \"#utility.yul\":10445:10446   */\n              0x01\n                /* \"#utility.yul\":10437:10443   */\n              dup3\n                /* \"#utility.yul\":10433:10447   */\n              add\n                /* \"#utility.yul\":10423:10447   */\n              swap2\n              pop\n                /* \"#utility.yul\":10492:10494   */\n              0x20\n                /* \"#utility.yul\":10481:10490   */\n              dup6\n                /* \"#utility.yul\":10477:10495   */\n              add\n                /* \"#utility.yul\":10464:10495   */\n              swap5\n              pop\n                /* \"#utility.yul\":10338:10342   */\n              0x20\n                /* \"#utility.yul\":10335:10336   */\n              dup2\n                /* \"#utility.yul\":10331:10343   */\n              add\n                /* \"#utility.yul\":10326:10343   */\n              swap1\n              pop\n                /* \"#utility.yul\":10301:10509   */\n              jump(tag_210)\n            tag_212:\n                /* \"#utility.yul\":10537:10543   */\n              dup7\n                /* \"#utility.yul\":10528:10535   */\n              dup4\n                /* \"#utility.yul\":10525:10544   */\n              lt\n                /* \"#utility.yul\":10522:10701   */\n              iszero\n              tag_213\n              jumpi\n                /* \"#utility.yul\":10595:10604   */\n              dup5\n                /* \"#utility.yul\":10590:10593   */\n              dup10\n                /* \"#utility.yul\":10586:10605   */\n              add\n                /* \"#utility.yul\":10580:10606   */\n              mload\n                /* \"#utility.yul\":10638:10686   */\n              tag_214\n                /* \"#utility.yul\":10680:10684   */\n              0x1f\n                /* \"#utility.yul\":10672:10678   */\n              dup10\n                /* \"#utility.yul\":10668:10685   */\n              and\n                /* \"#utility.yul\":10657:10666   */\n              dup3\n                /* \"#utility.yul\":10638:10686   */\n              tag_81\n              jump\t// in\n            tag_214:\n                /* \"#utility.yul\":10630:10636   */\n              dup4\n                /* \"#utility.yul\":10623:10687   */\n              sstore\n                /* \"#utility.yul\":10545:10701   */\n              pop\n                /* \"#utility.yul\":10522:10701   */\n            tag_213:\n                /* \"#utility.yul\":10747:10748   */\n              0x01\n                /* \"#utility.yul\":10743:10744   */\n              0x02\n                /* \"#utility.yul\":10735:10741   */\n              dup9\n                /* \"#utility.yul\":10731:10745   */\n              mul\n                /* \"#utility.yul\":10727:10749   */\n              add\n                /* \"#utility.yul\":10721:10725   */\n              dup9\n                /* \"#utility.yul\":10714:10750   */\n              sstore\n                /* \"#utility.yul\":10149:10760   */\n              pop\n              pop\n              pop\n                /* \"#utility.yul\":10112:10999   */\n            tag_205:\n              pop\n                /* \"#utility.yul\":9702:11005   */\n              pop\n              pop\n              pop\n                /* \"#utility.yul\":9610:11005   */\n              pop\n              pop\n              jump\t// out\n                /* \"#utility.yul\":11011:11159   */\n            tag_83:\n                /* \"#utility.yul\":11113:11124   */\n              0x00\n                /* \"#utility.yul\":11150:11153   */\n              dup2\n                /* \"#utility.yul\":11135:11153   */\n              swap1\n              pop\n                /* \"#utility.yul\":11011:11159   */\n              swap3\n              swap2\n              pop\n              pop\n              jump\t// out\n                /* \"#utility.yul\":11165:11542   */\n            tag_84:\n                /* \"#utility.yul\":11271:11274   */\n              0x00\n                /* \"#utility.yul\":11299:11338   */\n              tag_217\n                /* \"#utility.yul\":11332:11337   */\n              dup3\n                /* \"#utility.yul\":11299:11338   */\n              tag_63\n              jump\t// in\n            tag_217:\n                /* \"#utility.yul\":11354:11443   */\n              tag_218\n                /* \"#utility.yul\":11436:11442   */\n              dup2\n                /* \"#utility.yul\":11431:11434   */\n              dup6\n                /* \"#utility.yul\":11354:11443   */\n              tag_83\n              jump\t// in\n            tag_218:\n                /* \"#utility.yul\":11347:11443   */\n              swap4\n              pop\n                /* \"#utility.yul\":11452:11504   */\n              tag_219\n                /* \"#utility.yul\":11497:11503   */\n              dup2\n                /* \"#utility.yul\":11492:11495   */\n              dup6\n                /* \"#utility.yul\":11485:11489   */\n              0x20\n                /* \"#utility.yul\":11478:11483   */\n              dup7\n                /* \"#utility.yul\":11474:11490   */\n              add\n                /* \"#utility.yul\":11452:11504   */\n              tag_65\n              jump\t// in\n            tag_219:\n                /* \"#utility.yul\":11529:11535   */\n              dup1\n                /* \"#utility.yul\":11524:11527   */\n              dup5\n                /* \"#utility.yul\":11520:11536   */\n              add\n                /* \"#utility.yul\":11513:11536   */\n              swap2\n              pop\n                /* \"#utility.yul\":11275:11542   */\n              pop\n                /* \"#utility.yul\":11165:11542   */\n              swap3\n              swap2\n              pop\n              pop\n              jump\t// out\n                /* \"#utility.yul\":11548:11823   */\n            tag_37:\n                /* \"#utility.yul\":11680:11683   */\n              0x00\n                /* \"#utility.yul\":11702:11797   */\n              tag_221\n                /* \"#utility.yul\":11793:11796   */\n              dup3\n                /* \"#utility.yul\":11784:11790   */\n              dup5\n                /* \"#utility.yul\":11702:11797   */\n              tag_84\n              jump\t// in\n            tag_221:\n                /* \"#utility.yul\":11695:11797   */\n              swap2\n              pop\n                /* \"#utility.yul\":11814:11817   */\n              dup2\n                /* \"#utility.yul\":11807:11817   */\n              swap1\n              pop\n                /* \"#utility.yul\":11548:11823   */\n              swap3\n              swap2\n              pop\n              pop\n              jump\t// out\n\n            auxdata: 0xa2646970667358221220241b9f1ce35287728e37da2bc15005e592fb4d11c707c9850848a7d2b9d97baf64736f6c634300080f0033\n        }\n    }\n\n    auxdata: 0xa2646970667358221220e9c3273840b0a0680a67d8f87b3c8c571ba0da9296e0b4c92e007f2d961f8a1d64736f6c634300080f0033\n}\n",
				"bytecode": {
					"linkReferences": {},
					"object": "608060405234801561001057600080fd5b50610e8f806100206000396000f3fe608060405234801561001057600080fd5b506004361061004c5760003560e01c80631dda65411461005157806364591bf11461005b5780638dea47bc1461008b578063c5f19c20146100a7575b600080fd5b6100596100d7565b005b61007560048036038101906100709190610353565b61016a565b60405161008291906103ff565b60405180910390f35b6100a560048036038101906100a0919061041a565b6101a9565b005b6100c160048036038101906100bc9190610353565b610256565b6040516100ce9190610469565b60405180910390f35b60006040516100e59061030b565b604051809103906000f080158015610101573d6000803e3d6000fd5b5090506000819080600181540180825580915050600190039060005260206000200160009091909190916101000a81548173ffffffffffffffffffffffffffffffffffffffff021916908373ffffffffffffffffffffffffffffffffffffffff16021790555050565b6000818154811061017a57600080fd5b906000526020600020016000915054906101000a900473ffffffffffffffffffffffffffffffffffffffff1681565b600082815481106101bd576101bc610484565b5b9060005260206000200160009054906101000a900473ffffffffffffffffffffffffffffffffffffffff1673ffffffffffffffffffffffffffffffffffffffff16636057361d826040518263ffffffff1660e01b81526004016102209190610469565b600060405180830381600087803b15801561023a57600080fd5b505af115801561024e573d6000803e3d6000fd5b505050505050565b600080828154811061026b5761026a610484565b5b9060005260206000200160009054906101000a900473ffffffffffffffffffffffffffffffffffffffff1673ffffffffffffffffffffffffffffffffffffffff16632e64cec16040518163ffffffff1660e01b8152600401602060405180830381865afa1580156102e0573d6000803e3d6000fd5b505050506040513d601f19601f8201168201806040525081019061030491906104c8565b9050919050565b610964806104f683390190565b600080fd5b6000819050919050565b6103308161031d565b811461033b57600080fd5b50565b60008135905061034d81610327565b92915050565b60006020828403121561036957610368610318565b5b60006103778482850161033e565b91505092915050565b600073ffffffffffffffffffffffffffffffffffffffff82169050919050565b6000819050919050565b60006103c56103c06103bb84610380565b6103a0565b610380565b9050919050565b60006103d7826103aa565b9050919050565b60006103e9826103cc565b9050919050565b6103f9816103de565b82525050565b600060208201905061041460008301846103f0565b92915050565b6000806040838503121561043157610430610318565b5b600061043f8582860161033e565b92505060206104508582860161033e565b9150509250929050565b6104638161031d565b82525050565b600060208201905061047e600083018461045a565b92915050565b7f4e487b7100000000000000000000000000000000000000000000000000000000600052603260045260246000fd5b6000815190506104c281610327565b92915050565b6000602082840312156104de576104dd610318565b5b60006104ec848285016104b3565b9150509291505056fe608060405234801561001057600080fd5b50610944806100206000396000f3fe608060405234801561001057600080fd5b50600436106100575760003560e01c80632e64cec11461005c5780636057361d1461007a5780636f760f41146100965780638bab8dd5146100b25780639e7a13ad146100e2575b600080fd5b610064610113565b60405161007191906102b2565b60405180910390f35b610094600480360381019061008f919061030d565b61011c565b005b6100b060048036038101906100ab9190610480565b610126565b005b6100cc60048036038101906100c791906104dc565b6101af565b6040516100d991906102b2565b60405180910390f35b6100fc60048036038101906100f7919061030d565b6101dd565b60405161010a9291906105ad565b60405180910390f35b60008054905090565b8060008190555050565b6001604051806040016040528083815260200184815250908060018154018082558091505060019003906000526020600020906002020160009091909190915060008201518160000155602082015181600101908161018591906107e9565b5050508060028360405161019991906108f7565b9081526020016040518091039020819055505050565b6002818051602081018201805184825260208301602085012081835280955050505050506000915090505481565b600181815481106101ed57600080fd5b90600052602060002090600202016000915090508060000154908060010180546102169061060c565b80601f01602080910402602001604051908101604052809291908181526020018280546102429061060c565b801561028f5780601f106102645761010080835404028352916020019161028f565b820191906000526020600020905b81548152906001019060200180831161027257829003601f168201915b5050505050905082565b6000819050919050565b6102ac81610299565b82525050565b60006020820190506102c760008301846102a3565b92915050565b6000604051905090565b600080fd5b600080fd5b6102ea81610299565b81146102f557600080fd5b50565b600081359050610307816102e1565b92915050565b600060208284031215610323576103226102d7565b5b6000610331848285016102f8565b91505092915050565b600080fd5b600080fd5b6000601f19601f8301169050919050565b7f4e487b7100000000000000000000000000000000000000000000000000000000600052604160045260246000fd5b61038d82610344565b810181811067ffffffffffffffff821117156103ac576103ab610355565b5b80604052505050565b60006103bf6102cd565b90506103cb8282610384565b919050565b600067ffffffffffffffff8211156103eb576103ea610355565b5b6103f482610344565b9050602081019050919050565b82818337600083830152505050565b600061042361041e846103d0565b6103b5565b90508281526020810184848401111561043f5761043e61033f565b5b61044a848285610401565b509392505050565b600082601f8301126104675761046661033a565b5b8135610477848260208601610410565b91505092915050565b60008060408385031215610497576104966102d7565b5b600083013567ffffffffffffffff8111156104b5576104b46102dc565b5b6104c185828601610452565b92505060206104d2858286016102f8565b9150509250929050565b6000602082840312156104f2576104f16102d7565b5b600082013567ffffffffffffffff8111156105105761050f6102dc565b5b61051c84828501610452565b91505092915050565b600081519050919050565b600082825260208201905092915050565b60005b8381101561055f578082015181840152602081019050610544565b8381111561056e576000848401525b50505050565b600061057f82610525565b6105898185610530565b9350610599818560208601610541565b6105a281610344565b840191505092915050565b60006040820190506105c260008301856102a3565b81810360208301526105d48184610574565b90509392505050565b7f4e487b7100000000000000000000000000000000000000000000000000000000600052602260045260246000fd5b6000600282049050600182168061062457607f821691505b602082108103610637576106366105dd565b5b50919050565b60008190508160005260206000209050919050565b60006020601f8301049050919050565b600082821b905092915050565b60006008830261069f7fffffffffffffffffffffffffffffffffffffffffffffffffffffffffffffffff82610662565b6106a98683610662565b95508019841693508086168417925050509392505050565b6000819050919050565b60006106e66106e16106dc84610299565b6106c1565b610299565b9050919050565b6000819050919050565b610700836106cb565b61071461070c826106ed565b84845461066f565b825550505050565b600090565b61072961071c565b6107348184846106f7565b505050565b5b818110156107585761074d600082610721565b60018101905061073a565b5050565b601f82111561079d5761076e8161063d565b61077784610652565b81016020851015610786578190505b61079a61079285610652565b830182610739565b50505b505050565b600082821c905092915050565b60006107c0600019846008026107a2565b1980831691505092915050565b60006107d983836107af565b9150826002028217905092915050565b6107f282610525565b67ffffffffffffffff81111561080b5761080a610355565b5b610815825461060c565b61082082828561075c565b600060209050601f8311600181146108535760008415610841578287015190505b61084b85826107cd565b8655506108b3565b601f1984166108618661063d565b60005b8281101561088957848901518255600182019150602085019450602081019050610864565b868310156108a657848901516108a2601f8916826107af565b8355505b6001600288020188555050505b505050505050565b600081905092915050565b60006108d182610525565b6108db81856108bb565b93506108eb818560208601610541565b80840191505092915050565b600061090382846108c6565b91508190509291505056fea2646970667358221220241b9f1ce35287728e37da2bc15005e592fb4d11c707c9850848a7d2b9d97baf64736f6c634300080f0033a2646970667358221220e9c3273840b0a0680a67d8f87b3c8c571ba0da9296e0b4c92e007f2d961f8a1d64736f6c634300080f0033",
					"opcodes": "PUSH1 0x80 PUSH1 0x40 MSTORE CALLVALUE DUP1 ISZERO PUSH2 0x10 JUMPI PUSH1 0x0 DUP1 REVERT JUMPDEST POP PUSH2 0xE8F DUP1 PUSH2 0x20 PUSH1 0x0 CODECOPY PUSH1 0x0 RETURN INVALID PUSH1 0x80 PUSH1 0x40 MSTORE CALLVALUE DUP1 ISZERO PUSH2 0x10 JUMPI PUSH1 0x0 DUP1 REVERT JUMPDEST POP PUSH1 0x4 CALLDATASIZE LT PUSH2 0x4C JUMPI PUSH1 0x0 CALLDATALOAD PUSH1 0xE0 SHR DUP1 PUSH4 0x1DDA6541 EQ PUSH2 0x51 JUMPI DUP1 PUSH4 0x64591BF1 EQ PUSH2 0x5B JUMPI DUP1 PUSH4 0x8DEA47BC EQ PUSH2 0x8B JUMPI DUP1 PUSH4 0xC5F19C20 EQ PUSH2 0xA7 JUMPI JUMPDEST PUSH1 0x0 DUP1 REVERT JUMPDEST PUSH2 0x59 PUSH2 0xD7 JUMP JUMPDEST STOP JUMPDEST PUSH2 0x75 PUSH1 0x4 DUP1 CALLDATASIZE SUB DUP2 ADD SWAP1 PUSH2 0x70 SWAP2 SWAP1 PUSH2 0x353 JUMP JUMPDEST PUSH2 0x16A JUMP JUMPDEST PUSH1 0x40 MLOAD PUSH2 0x82 SWAP2 SWAP1 PUSH2 0x3FF JUMP JUMPDEST PUSH1 0x40 MLOAD DUP1 SWAP2 SUB SWAP1 RETURN JUMPDEST PUSH2 0xA5 PUSH1 0x4 DUP1 CALLDATASIZE SUB DUP2 ADD SWAP1 PUSH2 0xA0 SWAP2 SWAP1 PUSH2 0x41A JUMP JUMPDEST PUSH2 0x1A9 JUMP JUMPDEST STOP JUMPDEST PUSH2 0xC1 PUSH1 0x4 DUP1 CALLDATASIZE SUB DUP2 ADD SWAP1 PUSH2 0xBC SWAP2 SWAP1 PUSH2 0x353 JUMP JUMPDEST PUSH2 0x256 JUMP JUMPDEST PUSH1 0x40 MLOAD PUSH2 0xCE SWAP2 SWAP1 PUSH2 0x469 JUMP JUMPDEST PUSH1 0x40 MLOAD DUP1 SWAP2 SUB SWAP1 RETURN JUMPDEST PUSH1 0x0 PUSH1 0x40 MLOAD PUSH2 0xE5 SWAP1 PUSH2 0x30B JUMP JUMPDEST PUSH1 0x40 MLOAD DUP1 SWAP2 SUB SWAP1 PUSH1 0x0 CREATE DUP1 ISZERO DUP1 ISZERO PUSH2 0x101 JUMPI RETURNDATASIZE PUSH1 0x0 DUP1 RETURNDATACOPY RETURNDATASIZE PUSH1 0x0 REVERT JUMPDEST POP SWAP1 POP PUSH1 0x0 DUP2 SWAP1 DUP1 PUSH1 0x1 DUP2 SLOAD ADD DUP1 DUP3 SSTORE DUP1 SWAP2 POP POP PUSH1 0x1 SWAP1 SUB SWAP1 PUSH1 0x0 MSTORE PUSH1 0x20 PUSH1 0x0 KECCAK256 ADD PUSH1 0x0 SWAP1 SWAP2 SWAP1 SWAP2 SWAP1 SWAP2 PUSH2 0x100 EXP DUP2 SLOAD DUP2 PUSH20 0xFFFFFFFFFFFFFFFFFFFFFFFFFFFFFFFFFFFFFFFF MUL NOT AND SWAP1 DUP4 PUSH20 0xFFFFFFFFFFFFFFFFFFFFFFFFFFFFFFFFFFFFFFFF AND MUL OR SWAP1 SSTORE POP POP JUMP JUMPDEST PUSH1 0x0 DUP2 DUP2 SLOAD DUP2 LT PUSH2 0x17A JUMPI PUSH1 0x0 DUP1 REVERT JUMPDEST SWAP1 PUSH1 0x0 MSTORE PUSH1 0x20 PUSH1 0x0 KECCAK256 ADD PUSH1 0x0 SWAP2 POP SLOAD SWAP1 PUSH2 0x100 EXP SWAP1 DIV PUSH20 0xFFFFFFFFFFFFFFFFFFFFFFFFFFFFFFFFFFFFFFFF AND DUP2 JUMP JUMPDEST PUSH1 0x0 DUP3 DUP2 SLOAD DUP2 LT PUSH2 0x1BD JUMPI PUSH2 0x1BC PUSH2 0x484 JUMP JUMPDEST JUMPDEST SWAP1 PUSH1 0x0 MSTORE PUSH1 0x20 PUSH1 0x0 KECCAK256 ADD PUSH1 0x0 SWAP1 SLOAD SWAP1 PUSH2 0x100 EXP SWAP1 DIV PUSH20 0xFFFFFFFFFFFFFFFFFFFFFFFFFFFFFFFFFFFFFFFF AND PUSH20 0xFFFFFFFFFFFFFFFFFFFFFFFFFFFFFFFFFFFFFFFF AND PUSH4 0x6057361D DUP3 PUSH1 0x40 MLOAD DUP3 PUSH4 0xFFFFFFFF AND PUSH1 0xE0 SHL DUP2 MSTORE PUSH1 0x4 ADD PUSH2 0x220 SWAP2 SWAP1 PUSH2 0x469 JUMP JUMPDEST PUSH1 0x0 PUSH1 0x40 MLOAD DUP1 DUP4 SUB DUP2 PUSH1 0x0 DUP8 DUP1 EXTCODESIZE ISZERO DUP1 ISZERO PUSH2 0x23A JUMPI PUSH1 0x0 DUP1 REVERT JUMPDEST POP GAS CALL ISZERO DUP1 ISZERO PUSH2 0x24E JUMPI RETURNDATASIZE PUSH1 0x0 DUP1 RETURNDATACOPY RETURNDATASIZE PUSH1 0x0 REVERT JUMPDEST POP POP POP POP POP POP JUMP JUMPDEST PUSH1 0x0 DUP1 DUP3 DUP2 SLOAD DUP2 LT PUSH2 0x26B JUMPI PUSH2 0x26A PUSH2 0x484 JUMP JUMPDEST JUMPDEST SWAP1 PUSH1 0x0 MSTORE PUSH1 0x20 PUSH1 0x0 KECCAK256 ADD PUSH1 0x0 SWAP1 SLOAD SWAP1 PUSH2 0x100 EXP SWAP1 DIV PUSH20 0xFFFFFFFFFFFFFFFFFFFFFFFFFFFFFFFFFFFFFFFF AND PUSH20 0xFFFFFFFFFFFFFFFFFFFFFFFFFFFFFFFFFFFFFFFF AND PUSH4 0x2E64CEC1 PUSH1 0x40 MLOAD DUP2 PUSH4 0xFFFFFFFF AND PUSH1 0xE0 SHL DUP2 MSTORE PUSH1 0x4 ADD PUSH1 0x20 PUSH1 0x40 MLOAD DUP1 DUP4 SUB DUP2 DUP7 GAS STATICCALL ISZERO DUP1 ISZERO PUSH2 0x2E0 JUMPI RETURNDATASIZE PUSH1 0x0 DUP1 RETURNDATACOPY RETURNDATASIZE PUSH1 0x0 REVERT JUMPDEST POP POP POP POP PUSH1 0x40 MLOAD RETURNDATASIZE PUSH1 0x1F NOT PUSH1 0x1F DUP3 ADD AND DUP3 ADD DUP1 PUSH1 0x40 MSTORE POP DUP2 ADD SWAP1 PUSH2 0x304 SWAP2 SWAP1 PUSH2 0x4C8 JUMP JUMPDEST SWAP1 POP SWAP2 SWAP1 POP JUMP JUMPDEST PUSH2 0x964 DUP1 PUSH2 0x4F6 DUP4 CODECOPY ADD SWAP1 JUMP JUMPDEST PUSH1 0x0 DUP1 REVERT JUMPDEST PUSH1 0x0 DUP2 SWAP1 POP SWAP2 SWAP1 POP JUMP JUMPDEST PUSH2 0x330 DUP2 PUSH2 0x31D JUMP JUMPDEST DUP2 EQ PUSH2 0x33B JUMPI PUSH1 0x0 DUP1 REVERT JUMPDEST POP JUMP JUMPDEST PUSH1 0x0 DUP2 CALLDATALOAD SWAP1 POP PUSH2 0x34D DUP2 PUSH2 0x327 JUMP JUMPDEST SWAP3 SWAP2 POP POP JUMP JUMPDEST PUSH1 0x0 PUSH1 0x20 DUP3 DUP5 SUB SLT ISZERO PUSH2 0x369 JUMPI PUSH2 0x368 PUSH2 0x318 JUMP JUMPDEST JUMPDEST PUSH1 0x0 PUSH2 0x377 DUP5 DUP3 DUP6 ADD PUSH2 0x33E JUMP JUMPDEST SWAP2 POP POP SWAP3 SWAP2 POP POP JUMP JUMPDEST PUSH1 0x0 PUSH20 0xFFFFFFFFFFFFFFFFFFFFFFFFFFFFFFFFFFFFFFFF DUP3 AND SWAP1 POP SWAP2 SWAP1 POP JUMP JUMPDEST PUSH1 0x0 DUP2 SWAP1 POP SWAP2 SWAP1 POP JUMP JUMPDEST PUSH1 0x0 PUSH2 0x3C5 PUSH2 0x3C0 PUSH2 0x3BB DUP5 PUSH2 0x380 JUMP JUMPDEST PUSH2 0x3A0 JUMP JUMPDEST PUSH2 0x380 JUMP JUMPDEST SWAP1 POP SWAP2 SWAP1 POP JUMP JUMPDEST PUSH1 0x0 PUSH2 0x3D7 DUP3 PUSH2 0x3AA JUMP JUMPDEST SWAP1 POP SWAP2 SWAP1 POP JUMP JUMPDEST PUSH1 0x0 PUSH2 0x3E9 DUP3 PUSH2 0x3CC JUMP JUMPDEST SWAP1 POP SWAP2 SWAP1 POP JUMP JUMPDEST PUSH2 0x3F9 DUP2 PUSH2 0x3DE JUMP JUMPDEST DUP3 MSTORE POP POP JUMP JUMPDEST PUSH1 0x0 PUSH1 0x20 DUP3 ADD SWAP1 POP PUSH2 0x414 PUSH1 0x0 DUP4 ADD DUP5 PUSH2 0x3F0 JUMP JUMPDEST SWAP3 SWAP2 POP POP JUMP JUMPDEST PUSH1 0x0 DUP1 PUSH1 0x40 DUP4 DUP6 SUB SLT ISZERO PUSH2 0x431 JUMPI PUSH2 0x430 PUSH2 0x318 JUMP JUMPDEST JUMPDEST PUSH1 0x0 PUSH2 0x43F DUP6 DUP3 DUP7 ADD PUSH2 0x33E JUMP JUMPDEST SWAP3 POP POP PUSH1 0x20 PUSH2 0x450 DUP6 DUP3 DUP7 ADD PUSH2 0x33E JUMP JUMPDEST SWAP2 POP POP SWAP3 POP SWAP3 SWAP1 POP JUMP JUMPDEST PUSH2 0x463 DUP2 PUSH2 0x31D JUMP JUMPDEST DUP3 MSTORE POP POP JUMP JUMPDEST PUSH1 0x0 PUSH1 0x20 DUP3 ADD SWAP1 POP PUSH2 0x47E PUSH1 0x0 DUP4 ADD DUP5 PUSH2 0x45A JUMP JUMPDEST SWAP3 SWAP2 POP POP JUMP JUMPDEST PUSH32 0x4E487B7100000000000000000000000000000000000000000000000000000000 PUSH1 0x0 MSTORE PUSH1 0x32 PUSH1 0x4 MSTORE PUSH1 0x24 PUSH1 0x0 REVERT JUMPDEST PUSH1 0x0 DUP2 MLOAD SWAP1 POP PUSH2 0x4C2 DUP2 PUSH2 0x327 JUMP JUMPDEST SWAP3 SWAP2 POP POP JUMP JUMPDEST PUSH1 0x0 PUSH1 0x20 DUP3 DUP5 SUB SLT ISZERO PUSH2 0x4DE JUMPI PUSH2 0x4DD PUSH2 0x318 JUMP JUMPDEST JUMPDEST PUSH1 0x0 PUSH2 0x4EC DUP5 DUP3 DUP6 ADD PUSH2 0x4B3 JUMP JUMPDEST SWAP2 POP POP SWAP3 SWAP2 POP POP JUMP INVALID PUSH1 0x80 PUSH1 0x40 MSTORE CALLVALUE DUP1 ISZERO PUSH2 0x10 JUMPI PUSH1 0x0 DUP1 REVERT JUMPDEST POP PUSH2 0x944 DUP1 PUSH2 0x20 PUSH1 0x0 CODECOPY PUSH1 0x0 RETURN INVALID PUSH1 0x80 PUSH1 0x40 MSTORE CALLVALUE DUP1 ISZERO PUSH2 0x10 JUMPI PUSH1 0x0 DUP1 REVERT JUMPDEST POP PUSH1 0x4 CALLDATASIZE LT PUSH2 0x57 JUMPI PUSH1 0x0 CALLDATALOAD PUSH1 0xE0 SHR DUP1 PUSH4 0x2E64CEC1 EQ PUSH2 0x5C JUMPI DUP1 PUSH4 0x6057361D EQ PUSH2 0x7A JUMPI DUP1 PUSH4 0x6F760F41 EQ PUSH2 0x96 JUMPI DUP1 PUSH4 0x8BAB8DD5 EQ PUSH2 0xB2 JUMPI DUP1 PUSH4 0x9E7A13AD EQ PUSH2 0xE2 JUMPI JUMPDEST PUSH1 0x0 DUP1 REVERT JUMPDEST PUSH2 0x64 PUSH2 0x113 JUMP JUMPDEST PUSH1 0x40 MLOAD PUSH2 0x71 SWAP2 SWAP1 PUSH2 0x2B2 JUMP JUMPDEST PUSH1 0x40 MLOAD DUP1 SWAP2 SUB SWAP1 RETURN JUMPDEST PUSH2 0x94 PUSH1 0x4 DUP1 CALLDATASIZE SUB DUP2 ADD SWAP1 PUSH2 0x8F SWAP2 SWAP1 PUSH2 0x30D JUMP JUMPDEST PUSH2 0x11C JUMP JUMPDEST STOP JUMPDEST PUSH2 0xB0 PUSH1 0x4 DUP1 CALLDATASIZE SUB DUP2 ADD SWAP1 PUSH2 0xAB SWAP2 SWAP1 PUSH2 0x480 JUMP JUMPDEST PUSH2 0x126 JUMP JUMPDEST STOP JUMPDEST PUSH2 0xCC PUSH1 0x4 DUP1 CALLDATASIZE SUB DUP2 ADD SWAP1 PUSH2 0xC7 SWAP2 SWAP1 PUSH2 0x4DC JUMP JUMPDEST PUSH2 0x1AF JUMP JUMPDEST PUSH1 0x40 MLOAD PUSH2 0xD9 SWAP2 SWAP1 PUSH2 0x2B2 JUMP JUMPDEST PUSH1 0x40 MLOAD DUP1 SWAP2 SUB SWAP1 RETURN JUMPDEST PUSH2 0xFC PUSH1 0x4 DUP1 CALLDATASIZE SUB DUP2 ADD SWAP1 PUSH2 0xF7 SWAP2 SWAP1 PUSH2 0x30D JUMP JUMPDEST PUSH2 0x1DD JUMP JUMPDEST PUSH1 0x40 MLOAD PUSH2 0x10A SWAP3 SWAP2 SWAP1 PUSH2 0x5AD JUMP JUMPDEST PUSH1 0x40 MLOAD DUP1 SWAP2 SUB SWAP1 RETURN JUMPDEST PUSH1 0x0 DUP1 SLOAD SWAP1 POP SWAP1 JUMP JUMPDEST DUP1 PUSH1 0x0 DUP2 SWAP1 SSTORE POP POP JUMP JUMPDEST PUSH1 0x1 PUSH1 0x40 MLOAD DUP1 PUSH1 0x40 ADD PUSH1 0x40 MSTORE DUP1 DUP4 DUP2 MSTORE PUSH1 0x20 ADD DUP5 DUP2 MSTORE POP SWAP1 DUP1 PUSH1 0x1 DUP2 SLOAD ADD DUP1 DUP3 SSTORE DUP1 SWAP2 POP POP PUSH1 0x1 SWAP1 SUB SWAP1 PUSH1 0x0 MSTORE PUSH1 0x20 PUSH1 0x0 KECCAK256 SWAP1 PUSH1 0x2 MUL ADD PUSH1 0x0 SWAP1 SWAP2 SWAP1 SWAP2 SWAP1 SWAP2 POP PUSH1 0x0 DUP3 ADD MLOAD DUP2 PUSH1 0x0 ADD SSTORE PUSH1 0x20 DUP3 ADD MLOAD DUP2 PUSH1 0x1 ADD SWAP1 DUP2 PUSH2 0x185 SWAP2 SWAP1 PUSH2 0x7E9 JUMP JUMPDEST POP POP POP DUP1 PUSH1 0x2 DUP4 PUSH1 0x40 MLOAD PUSH2 0x199 SWAP2 SWAP1 PUSH2 0x8F7 JUMP JUMPDEST SWAP1 DUP2 MSTORE PUSH1 0x20 ADD PUSH1 0x40 MLOAD DUP1 SWAP2 SUB SWAP1 KECCAK256 DUP2 SWAP1 SSTORE POP POP POP JUMP JUMPDEST PUSH1 0x2 DUP2 DUP1 MLOAD PUSH1 0x20 DUP2 ADD DUP3 ADD DUP1 MLOAD DUP5 DUP3 MSTORE PUSH1 0x20 DUP4 ADD PUSH1 0x20 DUP6 ADD KECCAK256 DUP2 DUP4 MSTORE DUP1 SWAP6 POP POP POP POP POP POP PUSH1 0x0 SWAP2 POP SWAP1 POP SLOAD DUP2 JUMP JUMPDEST PUSH1 0x1 DUP2 DUP2 SLOAD DUP2 LT PUSH2 0x1ED JUMPI PUSH1 0x0 DUP1 REVERT JUMPDEST SWAP1 PUSH1 0x0 MSTORE PUSH1 0x20 PUSH1 0x0 KECCAK256 SWAP1 PUSH1 0x2 MUL ADD PUSH1 0x0 SWAP2 POP SWAP1 POP DUP1 PUSH1 0x0 ADD SLOAD SWAP1 DUP1 PUSH1 0x1 ADD DUP1 SLOAD PUSH2 0x216 SWAP1 PUSH2 0x60C JUMP JUMPDEST DUP1 PUSH1 0x1F ADD PUSH1 0x20 DUP1 SWAP2 DIV MUL PUSH1 0x20 ADD PUSH1 0x40 MLOAD SWAP1 DUP2 ADD PUSH1 0x40 MSTORE DUP1 SWAP3 SWAP2 SWAP1 DUP2 DUP2 MSTORE PUSH1 0x20 ADD DUP3 DUP1 SLOAD PUSH2 0x242 SWAP1 PUSH2 0x60C JUMP JUMPDEST DUP1 ISZERO PUSH2 0x28F JUMPI DUP1 PUSH1 0x1F LT PUSH2 0x264 JUMPI PUSH2 0x100 DUP1 DUP4 SLOAD DIV MUL DUP4 MSTORE SWAP2 PUSH1 0x20 ADD SWAP2 PUSH2 0x28F JUMP JUMPDEST DUP3 ADD SWAP2 SWAP1 PUSH1 0x0 MSTORE PUSH1 0x20 PUSH1 0x0 KECCAK256 SWAP1 JUMPDEST DUP2 SLOAD DUP2 MSTORE SWAP1 PUSH1 0x1 ADD SWAP1 PUSH1 0x20 ADD DUP1 DUP4 GT PUSH2 0x272 JUMPI DUP3 SWAP1 SUB PUSH1 0x1F AND DUP3 ADD SWAP2 JUMPDEST POP POP POP POP POP SWAP1 POP DUP3 JUMP JUMPDEST PUSH1 0x0 DUP2 SWAP1 POP SWAP2 SWAP1 POP JUMP JUMPDEST PUSH2 0x2AC DUP2 PUSH2 0x299 JUMP JUMPDEST DUP3 MSTORE POP POP JUMP JUMPDEST PUSH1 0x0 PUSH1 0x20 DUP3 ADD SWAP1 POP PUSH2 0x2C7 PUSH1 0x0 DUP4 ADD DUP5 PUSH2 0x2A3 JUMP JUMPDEST SWAP3 SWAP2 POP POP JUMP JUMPDEST PUSH1 0x0 PUSH1 0x40 MLOAD SWAP1 POP SWAP1 JUMP JUMPDEST PUSH1 0x0 DUP1 REVERT JUMPDEST PUSH1 0x0 DUP1 REVERT JUMPDEST PUSH2 0x2EA DUP2 PUSH2 0x299 JUMP JUMPDEST DUP2 EQ PUSH2 0x2F5 JUMPI PUSH1 0x0 DUP1 REVERT JUMPDEST POP JUMP JUMPDEST PUSH1 0x0 DUP2 CALLDATALOAD SWAP1 POP PUSH2 0x307 DUP2 PUSH2 0x2E1 JUMP JUMPDEST SWAP3 SWAP2 POP POP JUMP JUMPDEST PUSH1 0x0 PUSH1 0x20 DUP3 DUP5 SUB SLT ISZERO PUSH2 0x323 JUMPI PUSH2 0x322 PUSH2 0x2D7 JUMP JUMPDEST JUMPDEST PUSH1 0x0 PUSH2 0x331 DUP5 DUP3 DUP6 ADD PUSH2 0x2F8 JUMP JUMPDEST SWAP2 POP POP SWAP3 SWAP2 POP POP JUMP JUMPDEST PUSH1 0x0 DUP1 REVERT JUMPDEST PUSH1 0x0 DUP1 REVERT JUMPDEST PUSH1 0x0 PUSH1 0x1F NOT PUSH1 0x1F DUP4 ADD AND SWAP1 POP SWAP2 SWAP1 POP JUMP JUMPDEST PUSH32 0x4E487B7100000000000000000000000000000000000000000000000000000000 PUSH1 0x0 MSTORE PUSH1 0x41 PUSH1 0x4 MSTORE PUSH1 0x24 PUSH1 0x0 REVERT JUMPDEST PUSH2 0x38D DUP3 PUSH2 0x344 JUMP JUMPDEST DUP2 ADD DUP2 DUP2 LT PUSH8 0xFFFFFFFFFFFFFFFF DUP3 GT OR ISZERO PUSH2 0x3AC JUMPI PUSH2 0x3AB PUSH2 0x355 JUMP JUMPDEST JUMPDEST DUP1 PUSH1 0x40 MSTORE POP POP POP JUMP JUMPDEST PUSH1 0x0 PUSH2 0x3BF PUSH2 0x2CD JUMP JUMPDEST SWAP1 POP PUSH2 0x3CB DUP3 DUP3 PUSH2 0x384 JUMP JUMPDEST SWAP2 SWAP1 POP JUMP JUMPDEST PUSH1 0x0 PUSH8 0xFFFFFFFFFFFFFFFF DUP3 GT ISZERO PUSH2 0x3EB JUMPI PUSH2 0x3EA PUSH2 0x355 JUMP JUMPDEST JUMPDEST PUSH2 0x3F4 DUP3 PUSH2 0x344 JUMP JUMPDEST SWAP1 POP PUSH1 0x20 DUP2 ADD SWAP1 POP SWAP2 SWAP1 POP JUMP JUMPDEST DUP3 DUP2 DUP4 CALLDATACOPY PUSH1 0x0 DUP4 DUP4 ADD MSTORE POP POP POP JUMP JUMPDEST PUSH1 0x0 PUSH2 0x423 PUSH2 0x41E DUP5 PUSH2 0x3D0 JUMP JUMPDEST PUSH2 0x3B5 JUMP JUMPDEST SWAP1 POP DUP3 DUP2 MSTORE PUSH1 0x20 DUP2 ADD DUP5 DUP5 DUP5 ADD GT ISZERO PUSH2 0x43F JUMPI PUSH2 0x43E PUSH2 0x33F JUMP JUMPDEST JUMPDEST PUSH2 0x44A DUP5 DUP3 DUP6 PUSH2 0x401 JUMP JUMPDEST POP SWAP4 SWAP3 POP POP POP JUMP JUMPDEST PUSH1 0x0 DUP3 PUSH1 0x1F DUP4 ADD SLT PUSH2 0x467 JUMPI PUSH2 0x466 PUSH2 0x33A JUMP JUMPDEST JUMPDEST DUP2 CALLDATALOAD PUSH2 0x477 DUP5 DUP3 PUSH1 0x20 DUP7 ADD PUSH2 0x410 JUMP JUMPDEST SWAP2 POP POP SWAP3 SWAP2 POP POP JUMP JUMPDEST PUSH1 0x0 DUP1 PUSH1 0x40 DUP4 DUP6 SUB SLT ISZERO PUSH2 0x497 JUMPI PUSH2 0x496 PUSH2 0x2D7 JUMP JUMPDEST JUMPDEST PUSH1 0x0 DUP4 ADD CALLDATALOAD PUSH8 0xFFFFFFFFFFFFFFFF DUP2 GT ISZERO PUSH2 0x4B5 JUMPI PUSH2 0x4B4 PUSH2 0x2DC JUMP JUMPDEST JUMPDEST PUSH2 0x4C1 DUP6 DUP3 DUP7 ADD PUSH2 0x452 JUMP JUMPDEST SWAP3 POP POP PUSH1 0x20 PUSH2 0x4D2 DUP6 DUP3 DUP7 ADD PUSH2 0x2F8 JUMP JUMPDEST SWAP2 POP POP SWAP3 POP SWAP3 SWAP1 POP JUMP JUMPDEST PUSH1 0x0 PUSH1 0x20 DUP3 DUP5 SUB SLT ISZERO PUSH2 0x4F2 JUMPI PUSH2 0x4F1 PUSH2 0x2D7 JUMP JUMPDEST JUMPDEST PUSH1 0x0 DUP3 ADD CALLDATALOAD PUSH8 0xFFFFFFFFFFFFFFFF DUP2 GT ISZERO PUSH2 0x510 JUMPI PUSH2 0x50F PUSH2 0x2DC JUMP JUMPDEST JUMPDEST PUSH2 0x51C DUP5 DUP3 DUP6 ADD PUSH2 0x452 JUMP JUMPDEST SWAP2 POP POP SWAP3 SWAP2 POP POP JUMP JUMPDEST PUSH1 0x0 DUP2 MLOAD SWAP1 POP SWAP2 SWAP1 POP JUMP JUMPDEST PUSH1 0x0 DUP3 DUP3 MSTORE PUSH1 0x20 DUP3 ADD SWAP1 POP SWAP3 SWAP2 POP POP JUMP JUMPDEST PUSH1 0x0 JUMPDEST DUP4 DUP2 LT ISZERO PUSH2 0x55F JUMPI DUP1 DUP3 ADD MLOAD DUP2 DUP5 ADD MSTORE PUSH1 0x20 DUP2 ADD SWAP1 POP PUSH2 0x544 JUMP JUMPDEST DUP4 DUP2 GT ISZERO PUSH2 0x56E JUMPI PUSH1 0x0 DUP5 DUP5 ADD MSTORE JUMPDEST POP POP POP POP JUMP JUMPDEST PUSH1 0x0 PUSH2 0x57F DUP3 PUSH2 0x525 JUMP JUMPDEST PUSH2 0x589 DUP2 DUP6 PUSH2 0x530 JUMP JUMPDEST SWAP4 POP PUSH2 0x599 DUP2 DUP6 PUSH1 0x20 DUP7 ADD PUSH2 0x541 JUMP JUMPDEST PUSH2 0x5A2 DUP2 PUSH2 0x344 JUMP JUMPDEST DUP5 ADD SWAP2 POP POP SWAP3 SWAP2 POP POP JUMP JUMPDEST PUSH1 0x0 PUSH1 0x40 DUP3 ADD SWAP1 POP PUSH2 0x5C2 PUSH1 0x0 DUP4 ADD DUP6 PUSH2 0x2A3 JUMP JUMPDEST DUP2 DUP2 SUB PUSH1 0x20 DUP4 ADD MSTORE PUSH2 0x5D4 DUP2 DUP5 PUSH2 0x574 JUMP JUMPDEST SWAP1 POP SWAP4 SWAP3 POP POP POP JUMP JUMPDEST PUSH32 0x4E487B7100000000000000000000000000000000000000000000000000000000 PUSH1 0x0 MSTORE PUSH1 0x22 PUSH1 0x4 MSTORE PUSH1 0x24 PUSH1 0x0 REVERT JUMPDEST PUSH1 0x0 PUSH1 0x2 DUP3 DIV SWAP1 POP PUSH1 0x1 DUP3 AND DUP1 PUSH2 0x624 JUMPI PUSH1 0x7F DUP3 AND SWAP2 POP JUMPDEST PUSH1 0x20 DUP3 LT DUP2 SUB PUSH2 0x637 JUMPI PUSH2 0x636 PUSH2 0x5DD JUMP JUMPDEST JUMPDEST POP SWAP2 SWAP1 POP JUMP JUMPDEST PUSH1 0x0 DUP2 SWAP1 POP DUP2 PUSH1 0x0 MSTORE PUSH1 0x20 PUSH1 0x0 KECCAK256 SWAP1 POP SWAP2 SWAP1 POP JUMP JUMPDEST PUSH1 0x0 PUSH1 0x20 PUSH1 0x1F DUP4 ADD DIV SWAP1 POP SWAP2 SWAP1 POP JUMP JUMPDEST PUSH1 0x0 DUP3 DUP3 SHL SWAP1 POP SWAP3 SWAP2 POP POP JUMP JUMPDEST PUSH1 0x0 PUSH1 0x8 DUP4 MUL PUSH2 0x69F PUSH32 0xFFFFFFFFFFFFFFFFFFFFFFFFFFFFFFFFFFFFFFFFFFFFFFFFFFFFFFFFFFFFFFFF DUP3 PUSH2 0x662 JUMP JUMPDEST PUSH2 0x6A9 DUP7 DUP4 PUSH2 0x662 JUMP JUMPDEST SWAP6 POP DUP1 NOT DUP5 AND SWAP4 POP DUP1 DUP7 AND DUP5 OR SWAP3 POP POP POP SWAP4 SWAP3 POP POP POP JUMP JUMPDEST PUSH1 0x0 DUP2 SWAP1 POP SWAP2 SWAP1 POP JUMP JUMPDEST PUSH1 0x0 PUSH2 0x6E6 PUSH2 0x6E1 PUSH2 0x6DC DUP5 PUSH2 0x299 JUMP JUMPDEST PUSH2 0x6C1 JUMP JUMPDEST PUSH2 0x299 JUMP JUMPDEST SWAP1 POP SWAP2 SWAP1 POP JUMP JUMPDEST PUSH1 0x0 DUP2 SWAP1 POP SWAP2 SWAP1 POP JUMP JUMPDEST PUSH2 0x700 DUP4 PUSH2 0x6CB JUMP JUMPDEST PUSH2 0x714 PUSH2 0x70C DUP3 PUSH2 0x6ED JUMP JUMPDEST DUP5 DUP5 SLOAD PUSH2 0x66F JUMP JUMPDEST DUP3 SSTORE POP POP POP POP JUMP JUMPDEST PUSH1 0x0 SWAP1 JUMP JUMPDEST PUSH2 0x729 PUSH2 0x71C JUMP JUMPDEST PUSH2 0x734 DUP2 DUP5 DUP5 PUSH2 0x6F7 JUMP JUMPDEST POP POP POP JUMP JUMPDEST JUMPDEST DUP2 DUP2 LT ISZERO PUSH2 0x758 JUMPI PUSH2 0x74D PUSH1 0x0 DUP3 PUSH2 0x721 JUMP JUMPDEST PUSH1 0x1 DUP2 ADD SWAP1 POP PUSH2 0x73A JUMP JUMPDEST POP POP JUMP JUMPDEST PUSH1 0x1F DUP3 GT ISZERO PUSH2 0x79D JUMPI PUSH2 0x76E DUP2 PUSH2 0x63D JUMP JUMPDEST PUSH2 0x777 DUP5 PUSH2 0x652 JUMP JUMPDEST DUP2 ADD PUSH1 0x20 DUP6 LT ISZERO PUSH2 0x786 JUMPI DUP2 SWAP1 POP JUMPDEST PUSH2 0x79A PUSH2 0x792 DUP6 PUSH2 0x652 JUMP JUMPDEST DUP4 ADD DUP3 PUSH2 0x739 JUMP JUMPDEST POP POP JUMPDEST POP POP POP JUMP JUMPDEST PUSH1 0x0 DUP3 DUP3 SHR SWAP1 POP SWAP3 SWAP2 POP POP JUMP JUMPDEST PUSH1 0x0 PUSH2 0x7C0 PUSH1 0x0 NOT DUP5 PUSH1 0x8 MUL PUSH2 0x7A2 JUMP JUMPDEST NOT DUP1 DUP4 AND SWAP2 POP POP SWAP3 SWAP2 POP POP JUMP JUMPDEST PUSH1 0x0 PUSH2 0x7D9 DUP4 DUP4 PUSH2 0x7AF JUMP JUMPDEST SWAP2 POP DUP3 PUSH1 0x2 MUL DUP3 OR SWAP1 POP SWAP3 SWAP2 POP POP JUMP JUMPDEST PUSH2 0x7F2 DUP3 PUSH2 0x525 JUMP JUMPDEST PUSH8 0xFFFFFFFFFFFFFFFF DUP2 GT ISZERO PUSH2 0x80B JUMPI PUSH2 0x80A PUSH2 0x355 JUMP JUMPDEST JUMPDEST PUSH2 0x815 DUP3 SLOAD PUSH2 0x60C JUMP JUMPDEST PUSH2 0x820 DUP3 DUP3 DUP6 PUSH2 0x75C JUMP JUMPDEST PUSH1 0x0 PUSH1 0x20 SWAP1 POP PUSH1 0x1F DUP4 GT PUSH1 0x1 DUP2 EQ PUSH2 0x853 JUMPI PUSH1 0x0 DUP5 ISZERO PUSH2 0x841 JUMPI DUP3 DUP8 ADD MLOAD SWAP1 POP JUMPDEST PUSH2 0x84B DUP6 DUP3 PUSH2 0x7CD JUMP JUMPDEST DUP7 SSTORE POP PUSH2 0x8B3 JUMP JUMPDEST PUSH1 0x1F NOT DUP5 AND PUSH2 0x861 DUP7 PUSH2 0x63D JUMP JUMPDEST PUSH1 0x0 JUMPDEST DUP3 DUP2 LT ISZERO PUSH2 0x889 JUMPI DUP5 DUP10 ADD MLOAD DUP3 SSTORE PUSH1 0x1 DUP3 ADD SWAP2 POP PUSH1 0x20 DUP6 ADD SWAP5 POP PUSH1 0x20 DUP2 ADD SWAP1 POP PUSH2 0x864 JUMP JUMPDEST DUP7 DUP4 LT ISZERO PUSH2 0x8A6 JUMPI DUP5 DUP10 ADD MLOAD PUSH2 0x8A2 PUSH1 0x1F DUP10 AND DUP3 PUSH2 0x7AF JUMP JUMPDEST DUP4 SSTORE POP JUMPDEST PUSH1 0x1 PUSH1 0x2 DUP9 MUL ADD DUP9 SSTORE POP POP POP JUMPDEST POP POP POP POP POP POP JUMP JUMPDEST PUSH1 0x0 DUP2 SWAP1 POP SWAP3 SWAP2 POP POP JUMP JUMPDEST PUSH1 0x0 PUSH2 0x8D1 DUP3 PUSH2 0x525 JUMP JUMPDEST PUSH2 0x8DB DUP2 DUP6 PUSH2 0x8BB JUMP JUMPDEST SWAP4 POP PUSH2 0x8EB DUP2 DUP6 PUSH1 0x20 DUP7 ADD PUSH2 0x541 JUMP JUMPDEST DUP1 DUP5 ADD SWAP2 POP POP SWAP3 SWAP2 POP POP JUMP JUMPDEST PUSH1 0x0 PUSH2 0x903 DUP3 DUP5 PUSH2 0x8C6 JUMP JUMPDEST SWAP2 POP DUP2 SWAP1 POP SWAP3 SWAP2 POP POP JUMP INVALID LOG2 PUSH5 0x6970667358 0x22 SLT KECCAK256 0x24 SHL SWAP16 SHR 0xE3 MSTORE DUP8 PUSH19 0x8E37DA2BC15005E592FB4D11C707C9850848A7 0xD2 0xB9 0xD9 PUSH28 0xAF64736F6C634300080F0033A2646970667358221220E9C3273840B0 LOG0 PUSH9 0xA67D8F87B3C8C571B LOG0 0xDA SWAP3 SWAP7 0xE0 0xB4 0xC9 0x2E STOP PUSH32 0x2D961F8A1D64736F6C634300080F003300000000000000000000000000000000 "
				},
				"gasEstimates": {
					"creation": {
						"codeDepositCost": "745400",
						"executionCost": "779",
						"totalCost": "746179"
					},
					"external": {
						"createSimpleStorageContract()": "infinite",
						"fsStore(uint256,uint256)": "infinite",
						"sfGet(uint256)": "infinite",
						"simpleStorageArray(uint256)": "infinite"
					}
				},
				"methodIdentifiers": {
					"createSimpleStorageContract()": "1dda6541",
					"fsStore(uint256,uint256)": "8dea47bc",
					"sfGet(uint256)": "c5f19c20",
					"simpleStorageArray(uint256)": "64591bf1"
				}
			},
			"storageLayout": {
				"storage": [
					{
						"astId": 69,
						"contract": "contacts/StoreageFactory.sol:StorageFactory",
						"label": "simpleStorageArray",
						"offset": 0,
						"slot": "0",
						"type": "t_array(t_contract(SimpleStorage)62)dyn_storage"
					}
				],
				"types": {
					"t_array(t_contract(SimpleStorage)62)dyn_storage": {
						"base": "t_contract(SimpleStorage)62",
						"encoding": "dynamic_array",
						"label": "contract SimpleStorage[]",
						"numberOfBytes": "32"
					},
					"t_contract(SimpleStorage)62": {
						"encoding": "inplace",
						"label": "contract SimpleStorage",
						"numberOfBytes": "20"
					}
				}
			},
			"userdoc": {
				"kind": "user",
				"methods": {},
				"version": 1
			}
		}
	}
}