{
    "contractName": "SimpleStorage",
    "abi": [
        {
            "inputs": [
                {
                    "internalType": "string",
                    "name": "_name",
                    "type": "string"
                },
                {
                    "internalType": "uint256",
                    "name": "_favoriteNumber",
                    "type": "uint256"
                }
            ],
            "name": "addPerson",
            "outputs": [],
            "stateMutability": "nonpayable",
            "type": "function"
        },
        {
            "inputs": [],
            "name": "getFavoriteNumber",
            "outputs": [
                {
                    "internalType": "uint256",
                    "name": "",
                    "type": "uint256"
                }
            ],
            "stateMutability": "view",
            "type": "function"
        },
        {
            "inputs": [
                {
                    "internalType": "string",
                    "name": "",
                    "type": "string"
                }
            ],
            "name": "nameToFavoriteNumber",
            "outputs": [
                {
                    "internalType": "uint256",
                    "name": "",
                    "type": "uint256"
                }
            ],
            "stateMutability": "view",
            "type": "function"
        },
        {
            "inputs": [
                {
                    "internalType": "uint256",
                    "name": "",
                    "type": "uint256"
                }
            ],
            "name": "people",
            "outputs": [
                {
                    "internalType": "uint256",
                    "name": "farvoriteNumber",
                    "type": "uint256"
                },
                {
                    "internalType": "string",
                    "name": "name",
                    "type": "string"
                }
            ],
            "stateMutability": "view",
            "type": "function"
        },
        {
            "inputs": [
                {
                    "internalType": "uint256",
                    "name": "_favoriteNumber",
                    "type": "uint256"
                }
            ],
            "name": "setFavoriteNumber",
            "outputs": [],
            "stateMutability": "nonpayable",
            "type": "function"
        }
    ],
    "bytecode": "608060405234801561001057600080fd5b5061058c806100206000396000f3fe608060405234801561001057600080fd5b50600436106100575760003560e01c80636f760f411461005c5780638bab8dd5146100715780638ec04232146100af5780639e7a13ad146100c2578063a621d15e146100e3575b600080fd5b61006f61006a3660046102ec565b6100eb565b005b61009c61007f366004610331565b805160208183018101805160018252928201919093012091525481565b6040519081526020015b60405180910390f35b61006f6100bd36600461036e565b600055565b6100d56100d036600461036e565b610191565b6040516100a69291906103b7565b60005461009c565b6040805180820190915281815260208101838152600280546001810182556000829052835191027f405787fa12a823e0f2b7631cc41b3ba8828b3321ca811111fa75cd3aa3bb5ace8101918255915190917f405787fa12a823e0f2b7631cc41b3ba8828b3321ca811111fa75cd3aa3bb5acf0190610169908261047a565b5050508060018360405161017d919061053a565b908152604051908190036020019020555050565b600281815481106101a157600080fd5b600091825260209091206002909102018054600182018054919350906101c6906103f1565b80601f01602080910402602001604051908101604052809291908181526020018280546101f2906103f1565b801561023f5780601f106102145761010080835404028352916020019161023f565b820191906000526020600020905b81548152906001019060200180831161022257829003601f168201915b5050505050905082565b634e487b7160e01b600052604160045260246000fd5b600082601f83011261027057600080fd5b813567ffffffffffffffff8082111561028b5761028b610249565b604051601f8301601f19908116603f011681019082821181831017156102b3576102b3610249565b816040528381528660208588010111156102cc57600080fd5b836020870160208301376000602085830101528094505050505092915050565b600080604083850312156102ff57600080fd5b823567ffffffffffffffff81111561031657600080fd5b6103228582860161025f565b95602094909401359450505050565b60006020828403121561034357600080fd5b813567ffffffffffffffff81111561035a57600080fd5b6103668482850161025f565b949350505050565b60006020828403121561038057600080fd5b5035919050565b60005b838110156103a257818101518382015260200161038a565b838111156103b1576000848401525b50505050565b82815260406020820152600082518060408401526103dc816060850160208701610387565b601f01601f1916919091016060019392505050565b600181811c9082168061040557607f821691505b60208210810361042557634e487b7160e01b600052602260045260246000fd5b50919050565b601f82111561047557600081815260208120601f850160051c810160208610156104525750805b601f850160051c820191505b818110156104715782815560010161045e565b5050505b505050565b815167ffffffffffffffff81111561049457610494610249565b6104a8816104a284546103f1565b8461042b565b602080601f8311600181146104dd57600084156104c55750858301515b600019600386901b1c1916600185901b178555610471565b600085815260208120601f198616915b8281101561050c578886015182559484019460019091019084016104ed565b508582101561052a5787850151600019600388901b60f8161c191681555b5050505050600190811b01905550565b6000825161054c818460208701610387565b919091019291505056fea26469706673582212205daf48b18d3dad921188687969090da3fb662d07351302cf12066bbfe8a64c9864736f6c634300080f0033",
    "sourcePath": "/Users/admin/Desktop/blockchain/Solidity/FirstSimple/contacts/SimpleStorage.sol",
    "compiler": {
        "name": "solc",
        "version": "0.8.15+commit.e14f2714"
    },
    "functionHashes": {
        "addPerson(string,uint256)": "6f760f41",
        "getFavoriteNumber()": "a621d15e",
        "nameToFavoriteNumber(string)": "8bab8dd5",
        "people(uint256)": "9e7a13ad",
        "setFavoriteNumber(uint256)": "8ec04232"
    },
    "gasEstimates": {
        "creation": {
            "codeDepositCost": "284000",
            "executionCost": "324",
            "totalCost": "284324"
        },
        "external": {
            "addPerson(string,uint256)": "infinite",
            "getFavoriteNumber()": "2347",
            "nameToFavoriteNumber(string)": "infinite",
            "people(uint256)": "infinite",
            "setFavoriteNumber(uint256)": "22334"
        }
    }
}