{
	"data": {
		"bytecode": {
			"linkReferences": {},
			"object": "608060405234801561001057600080fd5b50610825806100206000396000f3fe608060405234801561001057600080fd5b506004361061004c5760003560e01c80636f760f41146100515780638ec042321461006d5780639e7a13ad14610089578063a621d15e146100ba575b600080fd5b61006b600480360381019061006691906103a6565b6100d8565b005b61008760048036038101906100829190610402565b61013e565b005b6100a3600480360381019061009e9190610402565b610151565b6040516100b19291906104c6565b60405180910390f35b6100c261020d565b6040516100cf91906104f6565b60405180910390f35b60016040518060400160405280838152602001848152509080600181540180825580915050600190039060005260206000209060020201600090919091909150600082015181600001556020820151816001019081610137919061071d565b5050505050565b8060008190555061014d61020d565b5050565b6001818154811061016157600080fd5b906000526020600020906002020160009150905080600001549080600101805461018a90610540565b80601f01602080910402602001604051908101604052809291908181526020018280546101b690610540565b80156102035780601f106101d857610100808354040283529160200191610203565b820191906000526020600020905b8154815290600101906020018083116101e657829003601f168201915b5050505050905082565b60008054905090565b6000604051905090565b600080fd5b600080fd5b600080fd5b600080fd5b6000601f19601f8301169050919050565b7f4e487b7100000000000000000000000000000000000000000000000000000000600052604160045260246000fd5b61027d82610234565b810181811067ffffffffffffffff8211171561029c5761029b610245565b5b80604052505050565b60006102af610216565b90506102bb8282610274565b919050565b600067ffffffffffffffff8211156102db576102da610245565b5b6102e482610234565b9050602081019050919050565b82818337600083830152505050565b600061031361030e846102c0565b6102a5565b90508281526020810184848401111561032f5761032e61022f565b5b61033a8482856102f1565b509392505050565b600082601f8301126103575761035661022a565b5b8135610367848260208601610300565b91505092915050565b6000819050919050565b61038381610370565b811461038e57600080fd5b50565b6000813590506103a08161037a565b92915050565b600080604083850312156103bd576103bc610220565b5b600083013567ffffffffffffffff8111156103db576103da610225565b5b6103e785828601610342565b92505060206103f885828601610391565b9150509250929050565b60006020828403121561041857610417610220565b5b600061042684828501610391565b91505092915050565b61043881610370565b82525050565b600081519050919050565b600082825260208201905092915050565b60005b8381101561047857808201518184015260208101905061045d565b83811115610487576000848401525b50505050565b60006104988261043e565b6104a28185610449565b93506104b281856020860161045a565b6104bb81610234565b840191505092915050565b60006040820190506104db600083018561042f565b81810360208301526104ed818461048d565b90509392505050565b600060208201905061050b600083018461042f565b92915050565b7f4e487b7100000000000000000000000000000000000000000000000000000000600052602260045260246000fd5b6000600282049050600182168061055857607f821691505b60208210810361056b5761056a610511565b5b50919050565b60008190508160005260206000209050919050565b60006020601f8301049050919050565b600082821b905092915050565b6000600883026105d37fffffffffffffffffffffffffffffffffffffffffffffffffffffffffffffffff82610596565b6105dd8683610596565b95508019841693508086168417925050509392505050565b6000819050919050565b600061061a61061561061084610370565b6105f5565b610370565b9050919050565b6000819050919050565b610634836105ff565b61064861064082610621565b8484546105a3565b825550505050565b600090565b61065d610650565b61066881848461062b565b505050565b5b8181101561068c57610681600082610655565b60018101905061066e565b5050565b601f8211156106d1576106a281610571565b6106ab84610586565b810160208510156106ba578190505b6106ce6106c685610586565b83018261066d565b50505b505050565b600082821c905092915050565b60006106f4600019846008026106d6565b1980831691505092915050565b600061070d83836106e3565b9150826002028217905092915050565b6107268261043e565b67ffffffffffffffff81111561073f5761073e610245565b5b6107498254610540565b610754828285610690565b600060209050601f8311600181146107875760008415610775578287015190505b61077f8582610701565b8655506107e7565b601f19841661079586610571565b60005b828110156107bd57848901518255600182019150602085019450602081019050610798565b868310156107da57848901516107d6601f8916826106e3565b8355505b6001600288020188555050505b50505050505056fea264697066735822122082245d2d8e6dd00aa1ab8e5342c95cc1d2a3826c27d80835f47b0b849f5fb81664736f6c634300080f0033",
			"opcodes": "PUSH1 0x80 PUSH1 0x40 MSTORE CALLVALUE DUP1 ISZERO PUSH2 0x10 JUMPI PUSH1 0x0 DUP1 REVERT JUMPDEST POP PUSH2 0x825 DUP1 PUSH2 0x20 PUSH1 0x0 CODECOPY PUSH1 0x0 RETURN INVALID PUSH1 0x80 PUSH1 0x40 MSTORE CALLVALUE DUP1 ISZERO PUSH2 0x10 JUMPI PUSH1 0x0 DUP1 REVERT JUMPDEST POP PUSH1 0x4 CALLDATASIZE LT PUSH2 0x4C JUMPI PUSH1 0x0 CALLDATALOAD PUSH1 0xE0 SHR DUP1 PUSH4 0x6F760F41 EQ PUSH2 0x51 JUMPI DUP1 PUSH4 0x8EC04232 EQ PUSH2 0x6D JUMPI DUP1 PUSH4 0x9E7A13AD EQ PUSH2 0x89 JUMPI DUP1 PUSH4 0xA621D15E EQ PUSH2 0xBA JUMPI JUMPDEST PUSH1 0x0 DUP1 REVERT JUMPDEST PUSH2 0x6B PUSH1 0x4 DUP1 CALLDATASIZE SUB DUP2 ADD SWAP1 PUSH2 0x66 SWAP2 SWAP1 PUSH2 0x3A6 JUMP JUMPDEST PUSH2 0xD8 JUMP JUMPDEST STOP JUMPDEST PUSH2 0x87 PUSH1 0x4 DUP1 CALLDATASIZE SUB DUP2 ADD SWAP1 PUSH2 0x82 SWAP2 SWAP1 PUSH2 0x402 JUMP JUMPDEST PUSH2 0x13E JUMP JUMPDEST STOP JUMPDEST PUSH2 0xA3 PUSH1 0x4 DUP1 CALLDATASIZE SUB DUP2 ADD SWAP1 PUSH2 0x9E SWAP2 SWAP1 PUSH2 0x402 JUMP JUMPDEST PUSH2 0x151 JUMP JUMPDEST PUSH1 0x40 MLOAD PUSH2 0xB1 SWAP3 SWAP2 SWAP1 PUSH2 0x4C6 JUMP JUMPDEST PUSH1 0x40 MLOAD DUP1 SWAP2 SUB SWAP1 RETURN JUMPDEST PUSH2 0xC2 PUSH2 0x20D JUMP JUMPDEST PUSH1 0x40 MLOAD PUSH2 0xCF SWAP2 SWAP1 PUSH2 0x4F6 JUMP JUMPDEST PUSH1 0x40 MLOAD DUP1 SWAP2 SUB SWAP1 RETURN JUMPDEST PUSH1 0x1 PUSH1 0x40 MLOAD DUP1 PUSH1 0x40 ADD PUSH1 0x40 MSTORE DUP1 DUP4 DUP2 MSTORE PUSH1 0x20 ADD DUP5 DUP2 MSTORE POP SWAP1 DUP1 PUSH1 0x1 DUP2 SLOAD ADD DUP1 DUP3 SSTORE DUP1 SWAP2 POP POP PUSH1 0x1 SWAP1 SUB SWAP1 PUSH1 0x0 MSTORE PUSH1 0x20 PUSH1 0x0 KECCAK256 SWAP1 PUSH1 0x2 MUL ADD PUSH1 0x0 SWAP1 SWAP2 SWAP1 SWAP2 SWAP1 SWAP2 POP PUSH1 0x0 DUP3 ADD MLOAD DUP2 PUSH1 0x0 ADD SSTORE PUSH1 0x20 DUP3 ADD MLOAD DUP2 PUSH1 0x1 ADD SWAP1 DUP2 PUSH2 0x137 SWAP2 SWAP1 PUSH2 0x71D JUMP JUMPDEST POP POP POP POP POP JUMP JUMPDEST DUP1 PUSH1 0x0 DUP2 SWAP1 SSTORE POP PUSH2 0x14D PUSH2 0x20D JUMP JUMPDEST POP POP JUMP JUMPDEST PUSH1 0x1 DUP2 DUP2 SLOAD DUP2 LT PUSH2 0x161 JUMPI PUSH1 0x0 DUP1 REVERT JUMPDEST SWAP1 PUSH1 0x0 MSTORE PUSH1 0x20 PUSH1 0x0 KECCAK256 SWAP1 PUSH1 0x2 MUL ADD PUSH1 0x0 SWAP2 POP SWAP1 POP DUP1 PUSH1 0x0 ADD SLOAD SWAP1 DUP1 PUSH1 0x1 ADD DUP1 SLOAD PUSH2 0x18A SWAP1 PUSH2 0x540 JUMP JUMPDEST DUP1 PUSH1 0x1F ADD PUSH1 0x20 DUP1 SWAP2 DIV MUL PUSH1 0x20 ADD PUSH1 0x40 MLOAD SWAP1 DUP2 ADD PUSH1 0x40 MSTORE DUP1 SWAP3 SWAP2 SWAP1 DUP2 DUP2 MSTORE PUSH1 0x20 ADD DUP3 DUP1 SLOAD PUSH2 0x1B6 SWAP1 PUSH2 0x540 JUMP JUMPDEST DUP1 ISZERO PUSH2 0x203 JUMPI DUP1 PUSH1 0x1F LT PUSH2 0x1D8 JUMPI PUSH2 0x100 DUP1 DUP4 SLOAD DIV MUL DUP4 MSTORE SWAP2 PUSH1 0x20 ADD SWAP2 PUSH2 0x203 JUMP JUMPDEST DUP3 ADD SWAP2 SWAP1 PUSH1 0x0 MSTORE PUSH1 0x20 PUSH1 0x0 KECCAK256 SWAP1 JUMPDEST DUP2 SLOAD DUP2 MSTORE SWAP1 PUSH1 0x1 ADD SWAP1 PUSH1 0x20 ADD DUP1 DUP4 GT PUSH2 0x1E6 JUMPI DUP3 SWAP1 SUB PUSH1 0x1F AND DUP3 ADD SWAP2 JUMPDEST POP POP POP POP POP SWAP1 POP DUP3 JUMP JUMPDEST PUSH1 0x0 DUP1 SLOAD SWAP1 POP SWAP1 JUMP JUMPDEST PUSH1 0x0 PUSH1 0x40 MLOAD SWAP1 POP SWAP1 JUMP JUMPDEST PUSH1 0x0 DUP1 REVERT JUMPDEST PUSH1 0x0 DUP1 REVERT JUMPDEST PUSH1 0x0 DUP1 REVERT JUMPDEST PUSH1 0x0 DUP1 REVERT JUMPDEST PUSH1 0x0 PUSH1 0x1F NOT PUSH1 0x1F DUP4 ADD AND SWAP1 POP SWAP2 SWAP1 POP JUMP JUMPDEST PUSH32 0x4E487B7100000000000000000000000000000000000000000000000000000000 PUSH1 0x0 MSTORE PUSH1 0x41 PUSH1 0x4 MSTORE PUSH1 0x24 PUSH1 0x0 REVERT JUMPDEST PUSH2 0x27D DUP3 PUSH2 0x234 JUMP JUMPDEST DUP2 ADD DUP2 DUP2 LT PUSH8 0xFFFFFFFFFFFFFFFF DUP3 GT OR ISZERO PUSH2 0x29C JUMPI PUSH2 0x29B PUSH2 0x245 JUMP JUMPDEST JUMPDEST DUP1 PUSH1 0x40 MSTORE POP POP POP JUMP JUMPDEST PUSH1 0x0 PUSH2 0x2AF PUSH2 0x216 JUMP JUMPDEST SWAP1 POP PUSH2 0x2BB DUP3 DUP3 PUSH2 0x274 JUMP JUMPDEST SWAP2 SWAP1 POP JUMP JUMPDEST PUSH1 0x0 PUSH8 0xFFFFFFFFFFFFFFFF DUP3 GT ISZERO PUSH2 0x2DB JUMPI PUSH2 0x2DA PUSH2 0x245 JUMP JUMPDEST JUMPDEST PUSH2 0x2E4 DUP3 PUSH2 0x234 JUMP JUMPDEST SWAP1 POP PUSH1 0x20 DUP2 ADD SWAP1 POP SWAP2 SWAP1 POP JUMP JUMPDEST DUP3 DUP2 DUP4 CALLDATACOPY PUSH1 0x0 DUP4 DUP4 ADD MSTORE POP POP POP JUMP JUMPDEST PUSH1 0x0 PUSH2 0x313 PUSH2 0x30E DUP5 PUSH2 0x2C0 JUMP JUMPDEST PUSH2 0x2A5 JUMP JUMPDEST SWAP1 POP DUP3 DUP2 MSTORE PUSH1 0x20 DUP2 ADD DUP5 DUP5 DUP5 ADD GT ISZERO PUSH2 0x32F JUMPI PUSH2 0x32E PUSH2 0x22F JUMP JUMPDEST JUMPDEST PUSH2 0x33A DUP5 DUP3 DUP6 PUSH2 0x2F1 JUMP JUMPDEST POP SWAP4 SWAP3 POP POP POP JUMP JUMPDEST PUSH1 0x0 DUP3 PUSH1 0x1F DUP4 ADD SLT PUSH2 0x357 JUMPI PUSH2 0x356 PUSH2 0x22A JUMP JUMPDEST JUMPDEST DUP2 CALLDATALOAD PUSH2 0x367 DUP5 DUP3 PUSH1 0x20 DUP7 ADD PUSH2 0x300 JUMP JUMPDEST SWAP2 POP POP SWAP3 SWAP2 POP POP JUMP JUMPDEST PUSH1 0x0 DUP2 SWAP1 POP SWAP2 SWAP1 POP JUMP JUMPDEST PUSH2 0x383 DUP2 PUSH2 0x370 JUMP JUMPDEST DUP2 EQ PUSH2 0x38E JUMPI PUSH1 0x0 DUP1 REVERT JUMPDEST POP JUMP JUMPDEST PUSH1 0x0 DUP2 CALLDATALOAD SWAP1 POP PUSH2 0x3A0 DUP2 PUSH2 0x37A JUMP JUMPDEST SWAP3 SWAP2 POP POP JUMP JUMPDEST PUSH1 0x0 DUP1 PUSH1 0x40 DUP4 DUP6 SUB SLT ISZERO PUSH2 0x3BD JUMPI PUSH2 0x3BC PUSH2 0x220 JUMP JUMPDEST JUMPDEST PUSH1 0x0 DUP4 ADD CALLDATALOAD PUSH8 0xFFFFFFFFFFFFFFFF DUP2 GT ISZERO PUSH2 0x3DB JUMPI PUSH2 0x3DA PUSH2 0x225 JUMP JUMPDEST JUMPDEST PUSH2 0x3E7 DUP6 DUP3 DUP7 ADD PUSH2 0x342 JUMP JUMPDEST SWAP3 POP POP PUSH1 0x20 PUSH2 0x3F8 DUP6 DUP3 DUP7 ADD PUSH2 0x391 JUMP JUMPDEST SWAP2 POP POP SWAP3 POP SWAP3 SWAP1 POP JUMP JUMPDEST PUSH1 0x0 PUSH1 0x20 DUP3 DUP5 SUB SLT ISZERO PUSH2 0x418 JUMPI PUSH2 0x417 PUSH2 0x220 JUMP JUMPDEST JUMPDEST PUSH1 0x0 PUSH2 0x426 DUP5 DUP3 DUP6 ADD PUSH2 0x391 JUMP JUMPDEST SWAP2 POP POP SWAP3 SWAP2 POP POP JUMP JUMPDEST PUSH2 0x438 DUP2 PUSH2 0x370 JUMP JUMPDEST DUP3 MSTORE POP POP JUMP JUMPDEST PUSH1 0x0 DUP2 MLOAD SWAP1 POP SWAP2 SWAP1 POP JUMP JUMPDEST PUSH1 0x0 DUP3 DUP3 MSTORE PUSH1 0x20 DUP3 ADD SWAP1 POP SWAP3 SWAP2 POP POP JUMP JUMPDEST PUSH1 0x0 JUMPDEST DUP4 DUP2 LT ISZERO PUSH2 0x478 JUMPI DUP1 DUP3 ADD MLOAD DUP2 DUP5 ADD MSTORE PUSH1 0x20 DUP2 ADD SWAP1 POP PUSH2 0x45D JUMP JUMPDEST DUP4 DUP2 GT ISZERO PUSH2 0x487 JUMPI PUSH1 0x0 DUP5 DUP5 ADD MSTORE JUMPDEST POP POP POP POP JUMP JUMPDEST PUSH1 0x0 PUSH2 0x498 DUP3 PUSH2 0x43E JUMP JUMPDEST PUSH2 0x4A2 DUP2 DUP6 PUSH2 0x449 JUMP JUMPDEST SWAP4 POP PUSH2 0x4B2 DUP2 DUP6 PUSH1 0x20 DUP7 ADD PUSH2 0x45A JUMP JUMPDEST PUSH2 0x4BB DUP2 PUSH2 0x234 JUMP JUMPDEST DUP5 ADD SWAP2 POP POP SWAP3 SWAP2 POP POP JUMP JUMPDEST PUSH1 0x0 PUSH1 0x40 DUP3 ADD SWAP1 POP PUSH2 0x4DB PUSH1 0x0 DUP4 ADD DUP6 PUSH2 0x42F JUMP JUMPDEST DUP2 DUP2 SUB PUSH1 0x20 DUP4 ADD MSTORE PUSH2 0x4ED DUP2 DUP5 PUSH2 0x48D JUMP JUMPDEST SWAP1 POP SWAP4 SWAP3 POP POP POP JUMP JUMPDEST PUSH1 0x0 PUSH1 0x20 DUP3 ADD SWAP1 POP PUSH2 0x50B PUSH1 0x0 DUP4 ADD DUP5 PUSH2 0x42F JUMP JUMPDEST SWAP3 SWAP2 POP POP JUMP JUMPDEST PUSH32 0x4E487B7100000000000000000000000000000000000000000000000000000000 PUSH1 0x0 MSTORE PUSH1 0x22 PUSH1 0x4 MSTORE PUSH1 0x24 PUSH1 0x0 REVERT JUMPDEST PUSH1 0x0 PUSH1 0x2 DUP3 DIV SWAP1 POP PUSH1 0x1 DUP3 AND DUP1 PUSH2 0x558 JUMPI PUSH1 0x7F DUP3 AND SWAP2 POP JUMPDEST PUSH1 0x20 DUP3 LT DUP2 SUB PUSH2 0x56B JUMPI PUSH2 0x56A PUSH2 0x511 JUMP JUMPDEST JUMPDEST POP SWAP2 SWAP1 POP JUMP JUMPDEST PUSH1 0x0 DUP2 SWAP1 POP DUP2 PUSH1 0x0 MSTORE PUSH1 0x20 PUSH1 0x0 KECCAK256 SWAP1 POP SWAP2 SWAP1 POP JUMP JUMPDEST PUSH1 0x0 PUSH1 0x20 PUSH1 0x1F DUP4 ADD DIV SWAP1 POP SWAP2 SWAP1 POP JUMP JUMPDEST PUSH1 0x0 DUP3 DUP3 SHL SWAP1 POP SWAP3 SWAP2 POP POP JUMP JUMPDEST PUSH1 0x0 PUSH1 0x8 DUP4 MUL PUSH2 0x5D3 PUSH32 0xFFFFFFFFFFFFFFFFFFFFFFFFFFFFFFFFFFFFFFFFFFFFFFFFFFFFFFFFFFFFFFFF DUP3 PUSH2 0x596 JUMP JUMPDEST PUSH2 0x5DD DUP7 DUP4 PUSH2 0x596 JUMP JUMPDEST SWAP6 POP DUP1 NOT DUP5 AND SWAP4 POP DUP1 DUP7 AND DUP5 OR SWAP3 POP POP POP SWAP4 SWAP3 POP POP POP JUMP JUMPDEST PUSH1 0x0 DUP2 SWAP1 POP SWAP2 SWAP1 POP JUMP JUMPDEST PUSH1 0x0 PUSH2 0x61A PUSH2 0x615 PUSH2 0x610 DUP5 PUSH2 0x370 JUMP JUMPDEST PUSH2 0x5F5 JUMP JUMPDEST PUSH2 0x370 JUMP JUMPDEST SWAP1 POP SWAP2 SWAP1 POP JUMP JUMPDEST PUSH1 0x0 DUP2 SWAP1 POP SWAP2 SWAP1 POP JUMP JUMPDEST PUSH2 0x634 DUP4 PUSH2 0x5FF JUMP JUMPDEST PUSH2 0x648 PUSH2 0x640 DUP3 PUSH2 0x621 JUMP JUMPDEST DUP5 DUP5 SLOAD PUSH2 0x5A3 JUMP JUMPDEST DUP3 SSTORE POP POP POP POP JUMP JUMPDEST PUSH1 0x0 SWAP1 JUMP JUMPDEST PUSH2 0x65D PUSH2 0x650 JUMP JUMPDEST PUSH2 0x668 DUP2 DUP5 DUP5 PUSH2 0x62B JUMP JUMPDEST POP POP POP JUMP JUMPDEST JUMPDEST DUP2 DUP2 LT ISZERO PUSH2 0x68C JUMPI PUSH2 0x681 PUSH1 0x0 DUP3 PUSH2 0x655 JUMP JUMPDEST PUSH1 0x1 DUP2 ADD SWAP1 POP PUSH2 0x66E JUMP JUMPDEST POP POP JUMP JUMPDEST PUSH1 0x1F DUP3 GT ISZERO PUSH2 0x6D1 JUMPI PUSH2 0x6A2 DUP2 PUSH2 0x571 JUMP JUMPDEST PUSH2 0x6AB DUP5 PUSH2 0x586 JUMP JUMPDEST DUP2 ADD PUSH1 0x20 DUP6 LT ISZERO PUSH2 0x6BA JUMPI DUP2 SWAP1 POP JUMPDEST PUSH2 0x6CE PUSH2 0x6C6 DUP6 PUSH2 0x586 JUMP JUMPDEST DUP4 ADD DUP3 PUSH2 0x66D JUMP JUMPDEST POP POP JUMPDEST POP POP POP JUMP JUMPDEST PUSH1 0x0 DUP3 DUP3 SHR SWAP1 POP SWAP3 SWAP2 POP POP JUMP JUMPDEST PUSH1 0x0 PUSH2 0x6F4 PUSH1 0x0 NOT DUP5 PUSH1 0x8 MUL PUSH2 0x6D6 JUMP JUMPDEST NOT DUP1 DUP4 AND SWAP2 POP POP SWAP3 SWAP2 POP POP JUMP JUMPDEST PUSH1 0x0 PUSH2 0x70D DUP4 DUP4 PUSH2 0x6E3 JUMP JUMPDEST SWAP2 POP DUP3 PUSH1 0x2 MUL DUP3 OR SWAP1 POP SWAP3 SWAP2 POP POP JUMP JUMPDEST PUSH2 0x726 DUP3 PUSH2 0x43E JUMP JUMPDEST PUSH8 0xFFFFFFFFFFFFFFFF DUP2 GT ISZERO PUSH2 0x73F JUMPI PUSH2 0x73E PUSH2 0x245 JUMP JUMPDEST JUMPDEST PUSH2 0x749 DUP3 SLOAD PUSH2 0x540 JUMP JUMPDEST PUSH2 0x754 DUP3 DUP3 DUP6 PUSH2 0x690 JUMP JUMPDEST PUSH1 0x0 PUSH1 0x20 SWAP1 POP PUSH1 0x1F DUP4 GT PUSH1 0x1 DUP2 EQ PUSH2 0x787 JUMPI PUSH1 0x0 DUP5 ISZERO PUSH2 0x775 JUMPI DUP3 DUP8 ADD MLOAD SWAP1 POP JUMPDEST PUSH2 0x77F DUP6 DUP3 PUSH2 0x701 JUMP JUMPDEST DUP7 SSTORE POP PUSH2 0x7E7 JUMP JUMPDEST PUSH1 0x1F NOT DUP5 AND PUSH2 0x795 DUP7 PUSH2 0x571 JUMP JUMPDEST PUSH1 0x0 JUMPDEST DUP3 DUP2 LT ISZERO PUSH2 0x7BD JUMPI DUP5 DUP10 ADD MLOAD DUP3 SSTORE PUSH1 0x1 DUP3 ADD SWAP2 POP PUSH1 0x20 DUP6 ADD SWAP5 POP PUSH1 0x20 DUP2 ADD SWAP1 POP PUSH2 0x798 JUMP JUMPDEST DUP7 DUP4 LT ISZERO PUSH2 0x7DA JUMPI DUP5 DUP10 ADD MLOAD PUSH2 0x7D6 PUSH1 0x1F DUP10 AND DUP3 PUSH2 0x6E3 JUMP JUMPDEST DUP4 SSTORE POP JUMPDEST PUSH1 0x1 PUSH1 0x2 DUP9 MUL ADD DUP9 SSTORE POP POP POP JUMPDEST POP POP POP POP POP POP JUMP INVALID LOG2 PUSH5 0x6970667358 0x22 SLT KECCAK256 DUP3 0x24 0x5D 0x2D DUP15 PUSH14 0xD00AA1AB8E5342C95CC1D2A3826C 0x27 0xD8 ADDMOD CALLDATALOAD DELEGATECALL PUSH28 0xB849F5FB81664736F6C634300080F00330000000000000000000000 "
		},
		"gasEstimates": {
			"creation": {
				"codeDepositCost": "417000",
				"executionCost": "455",
				"totalCost": "417455"
			},
			"external": {
				"addPerson(string,uint256)": "infinite",
				"getFavoriteNumber()": "2481",
				"people(uint256)": "infinite",
				"setFavoriteNumber(uint256)": "24660"
			}
		},
		"methodIdentifiers": {
			"addPerson(string,uint256)": "6f760f41",
			"getFavoriteNumber()": "a621d15e",
			"people(uint256)": "9e7a13ad",
			"setFavoriteNumber(uint256)": "8ec04232"
		}
	},
	"abi": [
		{
			"inputs": [
				{
					"internalType": "string",
					"name": "_name",
					"type": "string"
				},
				{
					"internalType": "uint256",
					"name": "_favoriteNumber",
					"type": "uint256"
				}
			],
			"name": "addPerson",
			"outputs": [],
			"stateMutability": "nonpayable",
			"type": "function"
		},
		{
			"inputs": [],
			"name": "getFavoriteNumber",
			"outputs": [
				{
					"internalType": "uint256",
					"name": "",
					"type": "uint256"
				}
			],
			"stateMutability": "view",
			"type": "function"
		},
		{
			"inputs": [
				{
					"internalType": "uint256",
					"name": "",
					"type": "uint256"
				}
			],
			"name": "people",
			"outputs": [
				{
					"internalType": "uint256",
					"name": "farvoriteNumber",
					"type": "uint256"
				},
				{
					"internalType": "string",
					"name": "name",
					"type": "string"
				}
			],
			"stateMutability": "view",
			"type": "function"
		},
		{
			"inputs": [
				{
					"internalType": "uint256",
					"name": "_favoriteNumber",
					"type": "uint256"
				}
			],
			"name": "setFavoriteNumber",
			"outputs": [],
			"stateMutability": "nonpayable",
			"type": "function"
		}
	]
}